:020000040000FA
:060000000201070223E3E8
:03002B000227FAAF
:030053000224562E
:10008300022297E5C754F84401F5C779012200001D
:100093000080FB120086B900030200F1E4792178A5
:1000A30008B800028004F709D8FCE479297802B87B
:1000B30000028004F709D8FCE490028178DF790814
:1000C3008002F0A3D8FCD9FA7A5F7B0A90013778D3
:1000D30006790B8015E493A3AD82AE838A828B836A
:1000E300F0A3AA82AB838D828E83D8E9D9E7758288
:1000F300AB75839C74031201197582917583007427
:100103000012011975D00075813F751881751902A8
:10011300759F00020096C09FF59FE473D09F22D085
:1001230083D082C09FE493C0E0740193C0E0740263
:1001330093F59F22FF0000B4000028002800283018
:1001430075A000A000A000A00000080008E001F0D6
:10015300001000100010001000100010005000509C
:1001630000500010001000D0070000000000000F36
:100173000001000500307507001000010081FF0039
:1001830000FF3A0D580D400DFF0202020802500015
:10019300A0000000E8030227820100000882022178
:1001A30082010000B40A021382010000B20202219C
:1001B30082010000B50A021582010000C802022173
:1001C30082010000B60A021782010000CA0202215E
:1001D30082010000B70A021982080000CB02022143
:1001E30082010000B80A021B82010000B90AFF0164
:1001F30000FF200227820100000B820221820100FE
:10020300001D0B021D82000000000002118203008A
:10021300001803FE12FE12FE12FE12FE12FE12FE62
:1002230012FE12FE12FE12FE12FE12FE127A159238
:10023300157415020202020202020202010D0000FD
:1002430000100102278201000005820221820100C1
:10025300005E0B0249820100005B0702218201005C
:10026300005F0B0247820100003D810221820100F1
:1002730000600B0235820100002F81022182010000
:1002830000610B023382010000DF80022182010042
:1002930000620B023182010000CD80022182010045
:1002A30000630B022F82010000BB80022182010048
:1002B30000640B022D82010000A98002218201004B
:1002C30000650B022B8201000021810221820100C3
:1002D30000660B022982010000670B01E803053F5A
:1002E30010000000000000000000000000000000FB
:1002F30000000000000000000000000000000000FB
:10030300000020000000F0FF0770387600F0E3FFE4
:1003130003C0FFFF0700607606006076031CE0FF62
:1003230003FE210001F8C3FF010040000000F0FFBD
:100333000100FAFF7F808F1C3EF0C1DD11F8F0DC75
:100343000338381C07008C1F0E00800F18000004B0
:10035300000000000000000000000000000000009A
:10036300000000000000000000000000000000008A
:10037300000000000000000000000000000000007A
:100383000000E0010000E00100F0FFFF03F00000C7
:100393000000FE3F00000738000007180000FE1FA2
:1003A3000000000001F0FFFF03F0FFFF0330180619
:1003B3000310F8070310180703101C0302000E07AD
:1003C30020000F3F3FFE07FE1FFC01F81F70008057
:1003D3000700000000000000000000000000000013
:1003E300000000000000000000000000000000000A
:1003F30000000000000000000000000000000000FA
:10040300000000070030000F0070000F00F0000F25
:1004130000E0F3FF0000F8FF0103000F000F000FDF
:10042300003F040F38FCFEFF3F003FFF1F000307A0
:100433001F0080730080C1F100F0E1E001FC70C097
:10044300037CF8F00318F03F0700001F00000000D2
:100453000000000000000000000000000000000099
:100463000000F00000F00038F00078F00078F000B1
:1004730060F00F00FE0FC07F001EF8030FFC07871C
:100483000F0063000063F001F3FF0FB39F0FBF87FB
:10049300071EC7030CFE03000C0000000000000051
:1004A3000000000000000000000000000000000049
:1004B300F00080FF01FCFF01FC0700C00300C00146
:1004C30000E0FE07F03F1FFF3C0FE71F0FE71C0F85
:1004D300E61F0FE61C07EE1E07FCBF07FCFF031811
:1004E300E0030080030000000000000000000000A3
:1004F3000000000000000018070038C71F786F1EB7
:10050300700E1C00001C0CF31D1EFB1C8EF31DEE55
:10051300FB1CE6731CE6FB1FF60F1CB6031CBCE3B7
:100523001C9CC11F00001E00000000000000000012
:100533000000000000000000000000000060000058
:100543006000F06100DC6300DCF101DCF903FCFD19
:1005530000DC7D00FCF107FCF907CC7F00CE7100C5
:10056300C6F900C7F901C79D03DF0F1FF1037FC061
:1005730001F800000000000000000000000000007F
:1005830000000000000800001800781800661C0036
:10059300363E0016E60026C301A67F07FE1F1E7225
:1005A3001A7E32F8F1CA1F00C2190002F800C2D83D
:1005B30003629803F31803031F00001800000000F0
:1005C30000000000000000000000000000300000F8
:1005D300300020300070300018F003E4BC0366B62E
:1005E3000133720079120066FA0078C7007EEF00CB
:1005F300307D009C7000C6F000E0980370060F0089
:1006030000FE0000000000000000000000000000E9
:1006130000000000C01800C0180060180160C80185
:1006230030E800107C00181C00180E001C0F003E60
:100633000C20370C30330C30300C30300C3810F8C1
:100643003F10F07F000000000000000000000000E9
:100653000000000000000000000000000000001087
:1006630030007030007038007018007118003F18A7
:10067300003E980130FC1FF0FF3F38C6303C6E004F
:10068300377E00337C00F1EF03F187033000033042
:100693000002300000000000000000000000000025
:1006A300000000000000000000FC0FA001FC07A4F4
:1006B300055806FF7F313DE001C0033C0C000000FC
:1006C3000000000000000000008005FE079001FF0D
:1006D3001F90057C0317019006793E061800000061
:1006E30000000000000000000084048C04C00F4FD1
:1006F300084C08CC0F9C028C02663C20380000009A
:100703000000000000000000000003EE0F3002DFD5
:1007130002880388076808FF03003F0018000000F1
:1007230000000000000000000040004000400060A6
:1007330000E000300318060C1C07780030000000AE
:1007430000000000000000000000034113FF1F51E0
:10075300135B13FF17E01C30103C1008100000005F
:10076300000000000000000800180008000800084E
:100773000008000800080008000000080008000046
:100783000000000000000000006000F0033C03C212
:100793000030070E7CF93B0806880378030000004D
:1007A300000000000000000000C000FE7F6738303A
:1007B30004F807EF076006A00538040804000000EA
:1007C3000000000000000000000C030C03B71FAB87
:1007D3003071113F1331183F18910F0006000000CC
:1007E300000000000000000000E01F8602F80FE197
:1007F3000FCF030004F83F460D721980010000007B
:10080300000000000000000000C000FE1FF003F025
:10081300030209FE1EE2113041193F0E3C000000A5
:1008230000000000000000000000010601F80F01B5
:1008330001F77F183988044E0CE61F000000000002
:100843000008000800C83F08203F2008200820A80F
:100853003F18200C200B2008200820C83F0A200442
:10086300000000801F3F100810081104113C1126DE
:100873007F264025402440A45F3C402440042800B8
:100883001010041004FF7F10042202140A0812142B
:1008930002F27F190214051205910890084A1024E8
:1008A300600000FF01443F44227C22442244227C16
:1008B3002244144414E4155F0842084014402240C3
:1008C30041000000000000000020019C019F3F78D0
:1008D30026982E981E58363866180688030000009E
:1008E3000000000000000000002000FC1F301F6813
:1008F3001FA619200F3C0DC643027F0038000000DD
:100903000000000000000000003000F81F8001809C
:1009130003C00DE019B8318EF180018001000000A1
:100923000000000000000000000030FC315034984B
:100933003578342834FC34FE2106360018000000D4
:100943000000000000000000000806483EEA719A1B
:100953001F8A10891F880EC836E866080300000046
:100963000000000000000000008000FC1FF80FF0F2
:10097300073006C003FE7FF00F300CF00F000000BD
:100983000000008000800188029004A00CC0048055
:100993000280018002C004A00C9004880280010040
:1009A30000000030006000C0008001000300070069
:1009B3000F000700038001C0006000300018000032
:1009C30000FFFFFF00013075030201060000000075
:1009D3000000000000000000000000000000000014
:1009E3000000000000000000FFFF0600800CE80389
:1009F300090952656453746F726505120800080093
:100A0300020A000201060302F0FF424A2D456C650B
:100A13006374726963000000000000000000008836
:100A23001900008E190A4368617261637465726903
:100A33007374696320310002436861726163746592
:100A43007269737469632032000843686172616379
:100A5300746572697374696320330010436861724B
:100A63006163746572697374696320340002436857
:100A73006172616374657269737469632035001A06
:100A83004368617261637465726973746963203664
:100A9300000227820100000E820221820100005021
:100AA30013023982030000140A0245820100005137
:100AB300130221820100006213023B820100001530
:100AC3000A024582010000631302218201000074BF
:100AD30013023D82020000160A02458201000075DE
:100AE300130221820100008613023F8200000017D7
:100AF3000A021182030000180A02458201000087DE
:100B03001302218201000098130241820400001E97
:100B13000A0245820100009913022182010000AA02
:100B230013024382030000230A02118203000037E9
:100B33000A024582010000AB1312012258930312EB
:100B430001226F93031201229E9303120122D79372
:100B530003120122FF93031201222D940312012297
:100B63004494031201225B94031201227194031231
:100B73000122989403120122AB9403120122C1941F
:100B830003120122D49403120122F99403120122C5
:100B930011A40212012210A50212012245A502127C
:100BA300012266A50212012276A50212012297A54F
:100BB30002120122A3A60212012270A7021201222D
:100BC300E3A70212012269A802120122ACA80212B1
:100BD3000122E3A80212012269A9021201223BAAFF
:100BE3000212012299AA02120122B1AA02120122BF
:100BF3002BAB021201222EAB0212012231AB0212E5
:100C03000122D8AB02120122F0AB0212012220AC66
:100C13000212012240AC021201222EAD0212012265
:100C2300E4AD0212012213FB011201223BFB01126C
:100C3300012269FB01120122A0FB0112012208FC1F
:100C43000112012251FC011201229CFC011201221A
:100C5300DAFC0112012217FD0112012245FD0112E6
:100C63000122ECFD01120122F6FD0112012203FE15
:100C73000112012236FE01120122F8FE01120122A5
:100C830004FF011201221CFF0112012226FF01129F
:100C9300012211FF021201221FFF0212012237FF5C
:100CA300021201224FFF02120122E5A701120122C3
:100CB30083A801120122FBA80112012210AA01122A
:100CC30001224AAA01120122F3AA01120122C8AB8E
:100CD300011201222CAD0112012283AD0112012266
:100CE3000AAE01120122F1AE011201223EAF01123E
:100CF3000122CCAF01120122F0AF01120122C5B1D2
:100D03000112012206B20112012228B201120122AC
:100D1300A9B20112012293B30112012259B40112A3
:100D23000122CDC5021201229FC60212012248C729
:100D3300021201228BC70212012218C802120122D9
:100D4300A4C80212012285C902120122B4C90212E7
:100D53000122B0CA02120122F8CA02120122FACBFE
:100D6300021201223ECC0212012264CC02120122A1
:100D73006E9A0312012200800312012216800312CD
:100D830001223C80031201226481031201226E813D
:100D930003120122C78203120122C7830312012215
:100DA300ACD702120122E1D80212012214D9021295
:100DB30001225ED9021201221CDB02120122696E9A
:100DC30000120122CC6E00120122117000120122C6
:100DD3002170001201224470001201228F70001250
:100DE30001223471001201222A7200120122F472CC
:100DF300001201226C7400120122AE74001201224F
:100E03004C7500120122997500120122BF75001260
:100E13000122AD7700120122B277001201229379E9
:100E230000120122E77900120122497A00120122FD
:100E3300717A00120122157B00120122D77B001266
:100E43000122087C001201220B7C00120122537C38
:100E530000120122957C00120122FC7C0012012267
:100E6300498F031201225C8F03120122758F031233
:100E73000122C08F031201229B90031201222A91A7
:100E8300031201227591031201221C280012012270
:100E9300282800120122612800120122A62800122C
:100EA30001225D2900120122E329001201220F2AE7
:100EB30000120122482A001201225C2C0012012296
:100EC300382E001201222330001201225A3100125F
:100ED3000122BA3300120122A63400120122EC359A
:100EE30000120122F93600120122163700120122E4
:100EF3004E3700120122683700120122D037001248
:100F030001226A3C001201220B3D001201225C3DCA
:100F130000120122833D00120122D13D0012012261
:100F2300EF3D00120122433E001201224B3F00120B
:100F33000122D33F00120122D2DC02120122DCDCA7
:100F430002120122A7DD02120122C2DD02120122D6
:100F5300E8DD021201222CDE0212012264DE0212FB
:100F630001228DDE0212012206DF021201221BDFA3
:100F73000212012230DF0212012267DF0212012274
:100F83007BDF02120122ACDF02120122E6DF021232
:100F9300012212E00212012289E002120122D2E0B0
:100FA30002120122FCE00212012221E102120122BB
:100FB30025FB02120122EFFB02120122D2FC0212D4
:100FC300012248FD021201228AFD02120122B7FE0C
:100FD3000212012200800212012229800212012240
:100FE30042800212012287810212012265820212CB
:100FF30001228482021201221183021201225483EC
:1010030002120122A184021201224085021201224E
:10101300BF87021201225688021201222A89021274
:1010230001220C8A02120122788B021201220B8CFC
:1010330002120122869603120122EF960312012265
:101043004397031201226A970312012224EA021230
:10105300012291EA02120122DCEA02120122D1EBFF
:1010630002120122CDEC02120122B7ED021201227B
:101073004FAE0212012291AE021201226BAF021295
:10108300012244B0021201223FB1021201221EB218
:10109300021201228AB20212012251B30212012268
:1010A300BCB30212012223B4021201224EB4021273
:1010B3000122BFB40212012252B502120122BBB5B2
:1010C30002120122D0B50212012218B60212012225
:1010D30031B60212012296B60212012299B6021209
:1010E3000122E789031201220F8A031201224D8A8A
:1010F300031201220B8B03120122768B03120122AE
:10110300928B03120122BA8B03120122EA8B031280
:101113000122F98B03120122738C03120122998C91
:10112300031201220CC501120122E9C60112012298
:10113300E4C801120122B7C90112012202CA011235
:1011430001224DCA011201225FCA011201229FCA64
:1011530001120122D4CA0112012220CB0112012261
:101163004FCB0112012272CB01120122BFCB01121C
:10117300012248CC0112012255CE0112012240D096
:101183000112012283D001120122E8D101120122AE
:1011930029D2011201229CD201120122E8D20112AA
:1011A3000122828C02120122AD8C0212012294933D
:1011B30002120122B8950212012273970212012230
:1011C300D098021201223A4000120122D1400012AB
:1011D3000122174100120122564200120122ED435F
:1011E30000120122674400120122824400120122EC
:1011F300F744001201222646001201228147001201
:101203000122834800120122E04900120122F94918
:1012130000120122564A00120122384B0012012209
:101223006B4B00120122DB4B00120122554C0012C2
:101233000122A44C00120122704D00120122754EAE
:1012430000120122544F00120122DF4F001201222B
:101253004D5000120122C15000120122EA50001227
:101263000122A951001201222353001201224053EB
:10127300001201225F5300120122F05300120122D7
:101283001554001201223D5400120122B8540012D9
:101293000122125500120122665600120122235721
:1012A30000120122F6570012012213D30112012268
:1012B30063D3011201226FD3011201224CD4011214
:1012C30001227CD401120122B4D40112012233D5AC
:1012D300011201226BD501120122BDD50112012297
:1012E300FAD5011201221FD8011201224BDA011291
:1012F300012246DC0112012221DE01120122FBFF41
:10130300021201225082011201229A820112012249
:10131300798801120122FA890112012259900112DE
:101323000122549101120122919101120122B491DF
:1013330001120122F69101120122FF9101120122F1
:10134300099201120122F59201120122E99301127D
:1013530001222458001201229C6200120122A2627F
:1013630000120122AE6900120122D183031201226D
:10137300CF84031201222585031201226385031200
:101383000122C085031201223D86031201224686F3
:1013930003120122528603120122658603120122DF
:1013A300A18603120122B78603120122CAF2021296
:1013B3000122D7F202120122F1F20212012230F3CA
:1013C300021201226EF302120122D3F3021201224E
:1013D300E8F302120122F3F30212012200F40212D3
:1013E300012217F40212012225F40212012230F421
:1013F300021201223CF4021201224BF402120122D6
:1014030056F40212012279F40212012222F5021289
:10141300012232F5021201224CF50212012269F572
:101423000212012285F502120122AAF502120122FB
:10143300B4F502120122C8F502120122E7F50212E5
:10144300012248F6021201224EF60212012254F63C
:10145300021201225AF60212012266F60212012238
:1014630099F602120122E7E00112012269E1011259
:10147300012212E2011201225AE30112012268E55C
:10148300011201224EE60112012283E6011201221A
:10149300A5E6011201224EE7011201221EE9011203
:1014A300012247E901120122BFE901120122F1E9F8
:1014B30001120122FEE90112012249EA011201226D
:1014C3006DEA01120122BEEC01120122C8ED0112E4
:1014D300012224EE011201228EB6011201229FB7CE
:1014E3000112012283B8011201228DB801120122D7
:1014F300AFB801120122BBB8011201225FBA011277
:1015030001228CBA01120122A2BB01120122F7BBF4
:101513000112012246BD011201221BBE011201224A
:1015230077BE01120122E2BE0112012217BF01128E
:1015330001225ABF0112012224C2011201223CC21C
:1015430001120122CDC201120122DBC201120122CA
:1015530028C30112012236C301120122A2C30112C0
:1015630001221DC40112012274C401120122F39845
:1015730002120122159902120122269B0212012254
:10158300E59D021201220F9F02120122CD9F02123A
:101593000122B9A0021201229F9103120122C491D8
:1015A300031201223A9203120122B0BE0212012257
:1015B300B9BE02120122C2BE021201229ABF021256
:1015C30001224BC1021201227BC102120122A6C1D8
:1015D30002120122D6C10212012201C20212012209
:1015E30035C20212012261C202120122A4C20212F6
:1015F3000122CFC20212012216C3021201226BC3BF
:1016030002120122ADC30212012207C402120122F7
:1016130032C40212012281C402120122B1C4021295
:101623000122DCC4021201220AC5021201222DC5C5
:1016330002120122F79A03120122239B03120122B1
:10164300509B031201225A9B031201226A9B03122D
:101653000122E786031201220C8703120122378736
:1016630003120122BBFF0112012201960112012282
:10167300DB97011201228B9901120122739A011245
:101683000122EE9A011201226C9B011201229D9B01
:1016930001120122109F011201227E9F01120122D9
:1016A3006FA001120122A9A001120122E9A00112D7
:1016B3000122FEA10112012240A20112012289A2EC
:1016C30001120122F6A20112012218A30112012222
:1016D30032A30112012229A40112012239A4011209
:1016E3000122D3A501120122EAA5011201221CA69F
:1016F30001120122A8A701120122EE7F001201228A
:10170300FE9C031201223D9D03120122E8FF0212F7
:101713000122749B03120122849B031201229D9BCD
:1017230003120122E19B031201229B970312012260
:101733001F9803120122859803120122879D031229
:101743000122F79D03120122D9CC0212012200CDFE
:10175300021201221FCD021201222ECD02120122FA
:1017630037CD0212012249CD021201229ECD02126F
:10177300012260CF02120122ADCF0212012296D0C4
:1017830002120122CE9D03120122F59D03120122B2
:10179300DE9D03120122979903120122BA990312C3
:1017A3000122E39903120122259A031201224BD24B
:1017B3000212012255D20212012295D202120122F3
:1017C300DED20212012216D30212012270D30212B8
:1017D30001228DD30212012296D302120122DDD3FC
:1017E3000212012206D40212012210D40212012293
:1017F3007CD4021201220ED50212012272D50212EA
:101803000122A5D50212012224D6021201225FD69B
:101813000212012292D602120122A4D6021201223E
:10182300C3D602120122CCD60212012280D70212A1
:1018330001220B95031201225E9503120122CA9520
:1018430003120122369603120122E18C03120122B4
:10185300098D03120122DE8D03120122DC8E031295
:1018630001229E9803120122C67D00120122FC7DF3
:10187300001201222F7E00120122887F0012012212
:10188300E49B03120122FA9B03120122049C03121C
:1018930001224C9C03120122BDB60212012286B71B
:1018A30002120122C1B702120122F2B7021201226F
:1018B30052B8021201229CB802120122EAB80212A3
:1018C300012275B9021201226EBA0212012212BC60
:1018D3000212012292BC02120122FDBC0212012259
:1018E30010BD02120122F7BD0212012241BE0212F3
:1018F300012216F7021201222CF702120122D0F75D
:10190300021201220FF8021201222CF80212012204
:101913005DF802120122AAF802120122DDF8021276
:10192300012218F90212012271EE0112012298F12B
:101933000112012212F30112012269F301120122A1
:1019430086F30112012204F40112012281F501122E
:10195300012254F60112012299F9011201227DFAA2
:1019630001120122479D03120122649D03120122E9
:101973006F9D0312012279EE02120122A2F00212DC
:101983000122D7F0021201220DF202120122ADF25E
:1019930002120122B8E50212012208E60212012214
:1019A30025E6021201220AE7021201226EE7021261
:1019B30001225EE802120122DDE90212012249E15D
:1019C3000212012279E10212012298E1021201229C
:1019D300B6E102120122EBE10212012200E202123D
:1019E300012211E20212012251E2021201229AE2C1
:1019F30002120122DDE20212012245E30212012258
:101A0300B1E302120122EAE30212012228E40212E4
:101A1300012238E4021201225EE402120122AAE446
:101A230002120122E8E40212012253E5021201220A
:101A3300C27F00120122B09D03E066701008A3E08C
:101A430066700A08A3E066700408A3E06622C3E791
:101A5300960809E7960809E7960809E79622C3E07E
:101A63009608A3E09608A3E09608A3E09622C00890
:101A7300C3E096F50808A3E096420808A3E096425F
:101A83000808A3E09645087001D3D0082208080887
:101A9300EAC0E0EBC0E086F0E7A4FA180986F0E7B5
:101AA300A42AFA180986F0E7A42AFA180986F0E7A7
:101AB300A42AFA1986F0E7A4FBE5F02AFA190886A6
:101AC300F0E7A42BFBE5F03AFA190886F0E7A42B1C
:101AD300FBE5F03AFA18180986F0E7A4C5F02BFBEA
:101AE300E43AFA1908E7C5F0C6A426F6E5F03BFB8D
:101AF300E43AFA1886F0E7A4F6E5F00826F6E43BA4
:101B030008F6E43A08F6D0E0FBD0E0FA22601608C3
:101B13000808C6C313C618C613C618C613C618C604
:101B230013C6D5E0EA2270090808082260161818BF
:101B330018C6C333C608C633C608C633C608C63379
:101B4300C6D5E0EA22E627F60809E637F60809E6ED
:101B530037F60809E637F622E026F608A3E036F65C
:101B630008A3E036F608A3E036F622E026F008A341
:101B7300E036F008A3E036F008A3E036F022C3E62F
:101B830097F60809E697F60809E697F60809E6972F
:101B9300F622C3E096F008A3E096F008A3E096F0DF
:101BA30008A3E096F022E056F608A3E056F608A351
:101BB300E056F608A3E056F622E056F008A3E056F6
:101BC300F008A3E056F008A3E056F022E0F608A3DD
:101BD300E0F608A3E0F608A3E0F622E6F008A3E6A1
:101BE300F008A3E6F008A3E6F022E0FAA3E0FBA3E3
:101BF300E0FCA3E0FD22EAF0A3EBF0A3ECF0A3EDFD
:101C0300F022E0F8A3E0F9A3E0FAA3E0FB22E8F076
:101C1300A3E9F0A3EAF0A3EBF022CAC0E0E6F0A345
:101C230008DAFAD0E0FA22CAC0E0E0A3C582CCC544
:101C330082C583CDC583F0A3C582CCC582C583CDC0
:101C4300C583DAE6D0E0CA22C3E498F8E499F9122E
:101C53001C8C8026C3E49AFAE49BFBE920E7E91293
:101C63001C8CE498F8E499F922C3E498F8E499F910
:101C7300121C8CE498F8E499F9C3E49AFAE49BFB08
:101C830022EB20E7CFE920E7E0B90010BB0008E82A
:101C93008AF084F8AAF022E4FBC8FA22EB70227BD4
:101CA30010C833C8C933C9335007C39AC3DBF280A2
:101CB300069A50012ADBEAC833F4C8C933F4C9FAD7
:101CC3002275F008E4C833C8C933C933C99AC99B1C
:101CD3005004C92AC93BD5F0ECFBC833F4C8E4C9A6
:101CE300FA22600D08C6A2E713C618C613C6D5E0CC
:101CF300F322600C08C6C313C618C613C6D5E0F496
:101D030022700422600D18C6C333C608C633C6D575
:101D1300E0F41822251810AF08F518400C151980A7
:101D230008F51840021519D2AF2200C0D0251810AB
:101D3300AF08F518500C05198008F518500205195D
:101D4300D2AFD0D0222518F58210AF08F518400C79
:101D530015198008F51840021519D2AF8519832289
:101D63002518F582E43519F583222518F8E4351989
:101D7300F9222518FAE43519FB222518FCE4351954
:101D8300FD22E4732518C582C0E0E51934FFC5833D
:101D9300C0E0E518C3958224F810AF088583198540
:101DA30082188008858319858218D2AFCEF0A3E507
:101DB30020F0A37808E608F0A3DEFAEFF0A3E581AC
:101DC30024FAF8E608F0A3E608F0A3E608F0A3086F
:101DD30008E608F0A3E608F0A315811581D0E0FE1C
:101DE300D0E0F8158115811581E8C0E0EEC0E0224E
:101DF3002518C582C0E0E51934FFC583C0E0E518A6
:101E0300C3958224F910AF08858319858218800849
:101E1300858319858218D2AFCEF0A3E520F0A3788D
:101E230008E608F0A3DEFAEFF0A3E58124FBF8E669
:101E330008F0A3E608F0A30808E608F0A3E608F014
:101E4300A315811581D0E0FED0E0F815811581E856
:101E5300C0E0EEC0E022851983851882E0A3FEE08E
:101E6300A3F5207808E0A3F608DFFAE0A3FFE0A3D8
:101E7300C0E0E0A3C0E0E0A3C0E0E0A3C0E0E0A3D3
:101E8300C0E010AF08858218858319800885821801
:101E9300858319D2AFD083D08202011F8519838530
:101EA3001882E0A3FEE0A3F5207808E0A3F608DF9C
:101EB300FAE0A3FFE0A3C0E0E0A3C0E0E0A3C0E03A
:101EC300E0A3C0E010AF08858218858319800885D8
:101ED3008218858319D2AFD083D0822274048006FE
:101EE300740280027401C0E0F404121D48D0E012B1
:101EF3001C1D227404800474028000CCC0E0EDC079
:101F0300E0E518C39CCCAD1950011D10AF068C1829
:101F13008D1980068C188D19D2AF121C2AD0E0FDC2
:101F2300D0E0FC22D083D082E9C0E0E493A3C3864F
:101F3300F0C5F095F0F908E493A386F0C5F095F0A9
:101F4300700BE493A3C3994005E9048002A3E475ED
:101F5300F002A42582F582E5F03583F583D0E0F91C
:101F6300E493A3C0E0E493C0E022D083D082ECC02A
:101F7300E0EDC0E0E493A3FCE493A3FDED4C600D1E
:101F8300121FB9EC24FFFCED34FFFD80EFE493A3B3
:101F9300FCE493A3FDED4C600D121FF8EC24FFFC51
:101FA300ED34FFFD80EFD0E0FDD0E0FCE493A3C06F
:101FB300E0E493C0E022C0E0C3E493960874019385
:101FC3009618400FE49366700808740193661870BE
:101FD300007019A3A3C3E49396087401939618A3FE
:101FE300A3400DD0E0D0E0D0E0021FA9A3A3A3A398
:101FF300A3A3D0E022C0E0C0F088F0E493667008A9
:102003000874019366187000A8F0A3A3700BD0F0B6
:10201300D0E0D0E0D0E0021FA9A3A3D0F0D0E0220B
:1020240074F5121DF3EAFEEBFFEE2434F8EF3400EE
:10203400F988088909EE2435F582EF3400F583E048
:10204400F8EE2437F582EF3400F583E0F50AEC85E9
:102054000AF0A4FCAAF0850AF0EDA42AFDE82CF805
:10206400E43DF97A257B00121C8CEA8508828509F7
:1020740083F05407F87401B800028004C333D8FC19
:10208400C0E0E0131313541FF8EE28F8EF3400F9FE
:10209400E8245DF582E93400F583D0E0F8E0586087
:1020A40008EE2434F582EF801EEE2436F582EF34F8
:1020B40000F583E0F5F0EA84A8F0EE28F8EF3400A8
:1020C400F9E82438F582E93400F583E0F97F040265
:1020D4001E9F74F5121DF3EAFEEBFFEE2434F58225
:1020E400EF3400F583E0C0E0EE2435F582EF3400F0
:1020F400F583D0E0F08E828F83A3A3A3A3A3A3A32D
:10210400C082C0838E828F83A3A3A3A3A3E0F8A37A
:10211400E0F9D083D082E0C398F508A3E099F509EB
:10212400EE2480F582EF3400F583E064017069EEFB
:102134002481F582EF3400F583E0F8A3E0F98E8280
:102144008F83A3A3A3A3A3A3A3E0FCA3E0FD8E8298
:102154008F83A3A3A3A3A3E0FAA3E0FBC3EA9CEBAE
:102164009D5027C3EC98ED99402EC3EA98EB995003
:10217400277CFD7D04EEFAEFFB12125CEE2480F561
:1021840082EF3400F583E4F0800EC3EA98EB9940C3
:10219400E0C3EC98ED9950D9EE2434F8EF3400F90B
:1021A400E8FCE9FDEE2435F582EF3400F583E0F830
:1021B400EE2437F582EF3400F583E0F50AE508856F
:1021C4000AF0A4F508AAF0850AF0E509A42AF5099D
:1021D400E82508F8E43509F97A257B00121C8CEA15
:1021E4008C828D83F05407F87401B800028004C314
:1021F40033D8FCC0E0E0131313541FF8EE28F8EFB3
:102204003400F9E8245DF582E93400F583D0E0F880
:10221400E0586008EE2434F582EF801EEE2436F593
:1022240082EF3400F583E0F5F0EA84A8F0EE28F8B4
:10223400EF3400F9E82438F582E93400F583E0F955
:102244001227EC0220D1C082C083851882851983AD
:10225400E0F8A3E0F9C3EA9CEB9D5012C3EC98EDBF
:10226400994019C3EA98EB99501279018010C3EA96
:1022740098EB9940F5C3EC98ED9950EE7900D08332
:10228400D08222EAC39CFAEB9DFB2200852187853C
:1022940022C622C0E0C0D0E8C0E0E9C0E0EAC0E065
:1022A400EBC0E0ECC0E0EDC0E0C008C009C00AC06B
:1022B4000BC082C083C0F0759B00906182E0A2E6EF
:1022C4004003022375E591A2E6400302237575914C
:1022D400BF9003C2E064057008121388121394803F
:1022E4000312138E7521001213E8E99003C3F079E9
:1022F400001213DC1211D27A017B009003C1E0F9C1
:10230400121808907803E0644260030223BE90052B
:102314005FE014F060030223BEC2AF1223220078F0
:102324002AD0E0F618D0E0F6E59F5407F97005903E
:1023340081D580039081B17808121BCFE9C4C0E035
:102344007829E65508F50808E65509F509740B7867
:1023540008121CF5D0E02508F8906270E0A2E7406E
:10236400F8E8C333906272F0906270E0D2E0F080DB
:1023740049E0A2E55024E591A2E5501E7591DF9055
:1023840003C2E0640D70139003E4E004F064287069
:1023940002E4F07A00E0F912145A906181E0A2E3B9
:1023A4005009E5E9A2E3500375E9F7A3E0A2E75079
:1023B40009E591A2E7500375917FD0F0D083D082D4
:1023C400D00BD00AD009D008D0E0FDD0E0FCD0E09A
:1023D400FBD0E0FAD0E0F9D0E0F8D0D0D0E032C0C1
:1023E400E0C0D0C082C083906183E0A2E05009E5E0
:1023F400BFA2E0500375BFFEE0A2E15009E5BFA211
:10240400E1500375BFFDE0A2E25009E5BFA2E2502E
:102414000375BFFBE0A2E35009E5BFA2E3500375D7
:10242400BFF7E0A2E45009E5BFA2E4500375BFEF93
:10243400E0A2E55009E5BFA2E5500375BFDFE0A2C5
:10244400E65009E5BFA2E6500375BFBFD083D08232
:102454008088C0E0C0D0E8C0E0E9C0E0EAC0E0EBBA
:10246400C0E0ECC0E0EDC0E0C0F0E5A7A2E6500F8C
:10247400E5A1A2E6500953A7BF75A1BF1224BBE58D
:10248400A7A2E5500CE5A1A2E5500653A7DF75A16C
:10249400DFE5A7A2E15009E5A1A2E1500375A1FD82
:1024A400E5A7A2E2500CE5A1A2E2500653A7FB75F2
:1024B400A1FBD0F00223CC74F8121DF37521019016
:1024C40003C2E0640670151213288A828B83A3A3C7
:1024D400A3A3A3A3E0FAA3E0FB121376A2AFE43311
:1024E400FED2AF9003C8E0640170187A207B00909C
:1024F40003C1E0F91219167A207B009003C1E0F9B8
:1025040012180E906182E0D2E6F090055EE0602140
:1025140085C62280169003C7E064017008E5C6549E
:10252400F84405F5C653BEFC12229074016521607F
:10253400E4EEA2E092AF7F01021E9F008E238F245F
:10254400858228858327851882851983E0CEA3E0B8
:10255400CF852882852783EBC9EAC8EDCBECCA7501
:10256400F010C3E833C8E933C9EA33CAEB33CBC349
:10257400EA9EF526EB9FF525B35004AB25AA26EC7D
:1025840033CCED33CDD5F0DAAE23AF242274F1127F
:102594001DF38A088B098C0A8D0B740F121D637846
:1025A4000C121BCF9081A17808121BA99081A178ED
:1025B4000C121BA97808790C121A51501578087955
:1025C4000C121B8190818D7808121A7140157901C3
:1025D4008013780C7908121B8190818D780C121A63
:1025E4007140EB79007F08021E9F74ED121DF38A7F
:1025F400088B098C0A8D0B7413121D63780C121B43
:10260400CF9081A17808121BA99081A1780C121B8C
:10261400A9780C7908121A5140117808790C121B08
:1026240081AA08AB09AC0AAD0B80227510007511A4
:10263400007512007513017810790C121B81781043
:102644007908121B48AA10AB11AC12AD137F0C020F
:102654001E9F9081A17808121BCF8A828B837808F1
:10266400121BBC7F04021E9F74F5121DF38C828D15
:10267400837808121BCF8A828B837808121B95EA11
:102684002404F8EB3400F98C828D83A3A3A3A3E084
:10269400FCA3E0FD88828983C3E09CF0A3E09DF065
:1026A40088828983C3E09420A3E0944E40229081E1
:1026B400CD7808121BCF8A828B837808121B6E8A0E
:1026C400828B83A3A3A3A3E02420F0A3E0344EF0E1
:1026D400808074F5121DF3E9FE900514E0FAA3E07E
:1026E400FBEEC333F8E433F974F128F582748039CE
:1026F400F583E02AF508A3E03BF5097808121EE308
:102704009081F9121BED1225407402121D2D8A08C6
:102714008B098C0A8D0B74107808121B10AA08AB55
:10272400097F04021E9F74F1121DF38A0C8B0D8C19
:102734000E8D0F740F121D63E0FAA3E0FB741112E7
:102744001D63E0F508A3E0F5097413121D63E0FEB0
:10275400A3E0FF7808121EE3EA2401F508EB340035
:10276400F509E4F50AF50B780C7908121A909081B2
:10277400997808121BCF780C7908121A90AA0CAB1E
:102784000DAC0EAD0F1225407402121D2D8B09EAFB
:10279400450960047A0180027A00EC2AFCED3400D9
:1027A400FDECF8EDF97A717B02121C8C880889091A
:1027B400E4F50AF50B8E828F837808121BDEECF8A1
:1027C400EDF97A717B02121C8C8A088B09740578E6
:1027D40008121D048E828F83A3A3A3A3E508F0A38C
:1027E400E509F07F08021E9FC082C083E990600063
:1027F400F0D083D08222C0E0C0D0E8C0E0A8A8D244
:10280400AFC2C7E8A2E792AFD0E0F8D0D0D0E032B0
:10281400FFFFFFFFFFFFFFFFC082C083E9900B1C97
:10282400F0022A3B74F7121D87E99002E0F07C184D
:102834007D037AFF7BFF120F149002E174FFF0A373
:10284400F0A3E4F0A3F07905120EA29002E0E0F9FF
:10285400120DCA7A2C7B0F1210E802374974F41255
:102864001D878A088B09EB548060309002E0E0F900
:102874001217F08A0A8B0BAE0AAF0BEE4F60138E61
:10288400828F83E064B07003120EB4EEFAEFFB1291
:1028940017DEAA08E5096480FB80047A007B000245
:1028A4002A0A74F2121D8774FC121D17EAFEEBFF4C
:1028B4007412121D63123C30EE4F700302294974E6
:1028C40002121D63EEF0A3EF122C45ECF0A3ED12FF
:1028D4002C45AA82AB83120DC4E9F50A706AE50897
:1028E400450960648E828F83123C16EE4F60567ADF
:1028F400067B001218748A0C8B0DA80CA90DE849EC
:102904007005750A13804188828983E4122956EE82
:10291400F0A3EF123C41E508F0A3E509F09002E6CC
:102924001229DD9002E670051236F3801B1236E19F
:102934008003EAFCEBFD8C828D831229DD70F38C1D
:10294400828D8380E3750A02A90A7404121D2D0284
:102954003E30F0A3123BE7A32274F2121D87890ACA
:10296400E975F017A4FEAFF09002E5E4F09002E3FD
:102974001229DD600A12187A9002E3E4F0A3F0EE63
:10298400FAEFFB1218748A088B09EA4509602FEEE6
:10299400FCEFFD79001217CC9002E3E508F0A3E503
:1029A40009F07B0080081229C7E4F0A3F00BEBC305
:1029B400950A40F2E50A9002E5F079008002791365
:1029C400023E30EB75F017A4F8A9F09002E3E0287A
:1029D400FAA3E0398A82F58322123385EA4B227402
:1029E400F4121D877900EAA2E0501B75087A750974
:1029F400817808121EE37C047D007A1E7B0B120E84
:102A04009C7402121D2D7F04021E59C082C0839043
:102A140002E6122A42601C88828983A3A3E06A70BA
:102A240003A3E06B8882898370E8A3A3A3A3123372
:102A34008180047A007B00D083D08202011F123F80
:102A440016E8492274EE121D8774FC121D17EAFE63
:102A5400EBFF851882851983E4F0A3F0EE240212BB
:102A640036D3EE2405123BEEEE2404F50EEF122FBE
:102A7400FAE024FE603924FC604624FE605224FE01
:102A8400605E24FE7003022B5B24FE7003022BBFE6
:102A940024FE7003022BCE24FE7003022BDD24FCE3
:102AA4007003022BEC24FE7003022BFB022C3890E3
:102AB40002FF7417F0A3E4122C4D120B42022C38BF
:102AC400851882851983AC82AD83120EBA022C0854
:102AD400851882851983AC82AD83120EC0022C083E
:102AE400850C08850D097402121D63AC82AD8385C3
:102AF4000882850983123381120DE88A0C8B0DAC90
:102B04000CAD0DEC4D603BE4F50CF50D780C121E8C
:102B1400E3750CFF750D02780C121EE3750C00753D
:102B24000D03780C121EE37408121D63121EFA12B0
:102B34003F3A121D2DE9F50C700B123377120B5A24
:102B4400800F750C01850882850983122C3B12368F
:102B5400F3850C08022C0B7402121D63AC82AD8346
:102B6400850C82850D8312314C603C850C82850D69
:102B740083A3A3121EFA7510FF7511027810121E9A
:102B8400E37510007511037810121EE37408121D0A
:102B940063121EFA123F3A121D2DE9F509700B1249
:102BA4003377120B60800F750901850C82850D83C4
:102BB400122C3B1236F3850908804C85188285193E
:102BC40083AC82AD83120EC6803A85188285198340
:102BD400AC82AD83120ECC802B851882851983AC10
:102BE40082AD83120ED2801C851882851983AC8233
:102BF400AD83120ED8800D851882851983AC82AD01
:102C040083120EDEE9F508E50860298E828F83A31E
:102C1400E06414601F850E82850F83E09002FF122A
:102C24002C45123F129003001236F3E508A3122C30
:102C34004D120B3C0235E2123F168518828519832A
:102C440022F085188285198322F07CFF7D02850A93
:102C540082850B831233852274EE121D8774FC1255
:102C64001D178A0A8B0B8C0E8D0FEA2405F508EBD1
:102C74003400F5097C157D0079007AFF7B02121778
:102C8400CCE5082402F50CE509123BF18518828590
:102C940019838582108583117810121EE3850882BA
:102CA400850983A3A3A3A3123143121EE3E50824D9
:102CB40005F510E5093400F5117810121EE3850CB2
:102CC40082850D83123498120DE27406121D2D8A2A
:102CD400108B11AE10AF11E50A2402F50AE50B12B0
:102CE40036D6EE4F7003022E1A80177402121D633B
:102CF40012338188828983EAF0A3EBF09002FFE02B
:102D040004F09002FFE0C394054003022E1AE4F598
:102D140010F5117810121EE37510E8751102781081
:102D2400121EE37510E97511027810121EE3740681
:102D3400121D63121EFA7910EEFCEFFD123F3C12D5
:102D44001D2DE9705E850882850983A3A3A3A3A32F
:102D5400A3A3E0F89002E8E0687048123143121E21
:102D6400E37CE97D02E5082408FAE5093400FB1256
:102D740017C67402121D2DE960298E828F83A3A3C6
:102D8400A3A31233819002FFE0F5107402781012AD
:102D94001D0474002510F58274033511F583EAF0DF
:102DA400A3EBF07402121D638582108583117810E1
:102DB400121EE37402121D63121EFA850C82850D25
:102DC400831233A7121D2D8A108B11AE10AF1190F0
:102DD40002FFE0F51075110074027810121D0474DE
:102DE400FF2510F874023511F988828983A312290A
:102DF400DD7003022CE6E82403080808E93400F92E
:102E0400EE4F6003022CEF8882898374FFF0A3F0F5
:102E14009002FFE004F09002FFE0600A12337712A0
:102E24000B4E7900800B8508828509831236EA7976
:102E34000A0235E274EA121D8774FE121D178C1201
:102E44008D13EA2405F50CEB123F24123C1A750885
:102E540000750900EA2402F510EB3400F511851819
:102E64008285198385820A85830B780A121EE3857D
:102E74000C82850D83A3A3A3A3123010121EE3E5D5
:102E84000C2405F50AE50D1236D6780A121EE385E0
:102E94000C82850D83123014120DE27406121D2D5E
:102EA4008A0A8B0BEA450B7003022FB5EA2404F55A
:102EB4000EEB122FFA123C1A8A828B83A3A3A3E08F
:102EC400F985108285118312338B6003022FB5E4D8
:102ED400F514F5157814121EE37514E875150278C7
:102EE40014121EE37514E97515027814121EE374A6
:102EF40006121D63121EFA7913AC0AAD0B851082FB
:102F0400851183123F42121D2DE9F5096003022F3A
:102F1400B59002E8E0F8E5087009E02402900300A7
:102F2400F08014900300E0FCE82402FAE43400FB8F
:102F3400EA6C7001EB707E850882AA8212313A94A1
:102F440014123132506B850E82850F83E0C0E07419
:102F5400012A122FF1D0E0F00508850E82850F8337
:102F6400A3E0C0E085080A7401250A122FF1D0E01D
:102F7400F005089002E8123010121EE37CE97D028D
:102F840085080A7401250A123004121D2D9002E8E6
:102F9400E02508F50874FF6E700374FF6F6012EE8D
:102FA40024010EEF3400FFE508C394145003022EED
:102FB40062E50860131233958510828511831233FC
:102FC40081120B5479008014E509700375090A8590
:102FD4001282851383EEF0A3EFF0A9097402121D87
:102FE4002D7F0E021E5985080C7401250CF5827480
:102FF400033400F583223400F50F850E82F5832215
:10300400FA74033400FB1217B4740222123C5022E7
:10301400A3A312301A221236E1FDEEFAEFFB22745A
:10302400EE121D8774FE121D178C0E8D0FEA2405F7
:10303400F50CEB123BF1750B009002FFE4F0F50A7E
:10304400EA2402F508EB3400F50980449002FFE01D
:10305400FA9002E8E0F812313A9417123132400D36
:103064009002FFE0F87416C3989002E8F01231431E
:10307400121EE37CE97D0274002AFA7403123007FD
:10308400121D2D9002E8E0F89002FFE028F0050AF6
:10309400E50C2416F582E50D122FF5E0F8E50AC3D8
:1030A4009850749002FFE0C39416506BE50AC33342
:1030B400F8E433F9E50C28FEE50D39FF851882851F
:1030C4001983AC82AD838E828F8312314C70087564
:1030D4000B011236E68050E4F510F5117810121E3B
:1030E400E37510E87511027810121EE37510E97586
:1030F40011027810121EE37406121D63121EFA796F
:1031040016850882850983123F42121D2DE9F50BAD
:10311400700302305080BB7CFF7D028508828509E4
:1031240083123381120B66A90B74020235E4E9940D
:1031340000C365D03322EA28F8E43400F9E822E039
:10314400F5107511007810221235D98A108B11AC44
:1031540010AD11EC4D2274EA121D8774FC121D1778
:103164008A0C8B0D8C128D13EA2405F50AEB1236AA
:10317400D6750800750900E50A2402F510E50B343C
:1031840000F5117402121D6385820E85830F780E7B
:10319400121EE3850A82850B83A3A3A3A3123BF625
:1031A400121EE3E50A2405F50EE50B3400F50F784D
:1031B4000E121EE38510828511831236DC12337BD6
:1031C400120DE27406121D2D8A0E8B0FAE0EAF0F78
:1031D400E50C2402F50EE50D3400F50F80388882E5
:1031E400898374FFF00508122FEA74FFF005089034
:1031F40002E8E0F50C750D00780C121EE37CE97D05
:103204000285080C7401250C123004121D2D900245
:10321400E8E02508F508EE4F60278E828F83A3A38C
:10322400A3E0F9850E82850F8312338BEE240412FA
:103234003BEEE96027850C82850D8312336D1236CF
:10324400F3E5087003023353123395850E82850F1C
:1032540083123381120B6C7900023368E4F514F5A0
:10326400157814121EE37514E87515027814121EED
:10327400E37514E97515027814121EE37408121D1F
:1032840063121EFA7911EEFCEFFD850E82850F8321
:10329400123F42121D2DE9F509709A850882AA820F
:1032A400EA9002E87009E02404900300F08025E02D
:1032B400F8900300E0F514E82404FCE43400FDEC89
:1032C40065147001ED708112313A9412123132405A
:1032D4000302324C850C82850D83E0C0E074012A20
:1032E400122FF1D0E0F00508850C82850D83A3E050
:1032F400C0E0122FEAD0E01233B085820C85830D32
:10330400780C121EE37404121D63121EFA851082D7
:103314008511831233A7121D2D8A0C8B0DAE0CAFB1
:103324000D85080C7401250CF874033400F9EE4F74
:1033340070030231E2851882851983E088828983CB
:103344001233B0A3E0C0E0122FEAD0E00231F0E57E
:1033540009700375090A850A82850B8312336D127D
:1033640036F3A9097404022FE2123F1685128285EE
:103374001383227CFF7D02850A82850B83123385A9
:1033840022E0FAA3E0FB22123385120DD0E9F509FD
:1033940022900300E0F5F0E508849002FFF07CFF42
:1033A4007D022212301A120DEE740422F0050885F3
:1033B40018828519832274EC121D8774FE121D175E
:1033C4008A088B098C0E8D0FEA2405FEEB3400FF6E
:1033D4001235C3EE2418123BEEEA450B7003023497
:1033E400661235AC502912348B8A108B11EA4511C0
:1033F400606B7912AC0AAD0B8508828509831233A0
:1034040081851082851183121D85E9F50A7058E4BF
:10341400F50AF50B780A121EE38E828F83A3A3E0CC
:10342400F50A780A121EE3EE24031236D3780A1240
:103434001EE38E828F83123498120F027406121DBB
:103444002DE9F50A7021850C82850D83E0701F85B6
:103454000882850983123381120B728011750A0E5A
:103464008009750A018004E50A60031236E6850CBA
:1034740082850D83E0600479008002A90A74021237
:103484001D2D7F0C021E59851882851983123385E0
:10349400120EF0221236E1FD85088285098312336B
:1034A400852274EE121D8774FE121D178A088B097B
:1034B4008C0C8D0DEA2405FEEB3400FF750E001212
:1034C40035C3EA450B700302358A1235AC502C1211
:1034D400348B8A0E8B0FEA450F604A7912AC0AAD21
:1034E4000B850882850983123381850E82850F83BB
:1034F400121D85E9F50E600302358D850882850964
:10350400831237C8AA0AFB12359E70147AFF7BFF18
:1035140012359E606C88828983E50AF0A3E50BF07E
:10352400750A008007750E0E805F050A9002E5E0BB
:10353400FAE50AC39A504AE50A75F017A4FAABF003
:1035440088828983A3A3E02AFAA3E03BFB8A828BC7
:10355400831236DCEC4D70D2750A17750B00780AAD
:10356400121EE3EEFCEFFD1217B47402121D2DEED1
:10357400FCEFFD850882850983123381120B788064
:1035840014750E098003750E01123F0E850C828599
:103594000D831236F3A90E02312D120EE48A108B1C
:1035A40011A810A911E84922E5082402F508E50943
:1035B4003400F5098A828B83A3A3A3E0A2E52285C4
:1035C4001882851983AC82AD838E828F831235D99C
:1035D4008A0A8B0B22E0FAA3E0FB120DE8227404A2
:1035E400121D2D7F0A021E5974EC121D878C108D3A
:1035F40011EA2405F50CEB123BF1750F00EA2402E5
:10360400F50AEB1236D6850A82F583123381123F0E
:10361400C870030236C8750E008071850C82850D52
:1036240083E06401704F8E828F83A3A3121EFA8EEF
:10363400828F83A3A3A3A3E0F5127513007812125B
:103644001EE3EE2405F512EF3400F5137812121E72
:10365400E312337B120F027406121D2DE9F50F607D
:1036640014850C82850D83E4F0123F0E851082854B
:1036740011831236F37C177D007900EEFAEFFB120A
:1036840017CC8E828F83E4F0A3F0050E9002E5E060
:10369400F8E50EC398501EE50E75F017A4F8A9F0CE
:1036A400850882850983A3A3123F2E1236DCEC4DD4
:1036B400600302361F85088285098374FFF0A3F036
:1036C400E50F700612337B120B7EA90F023486F5C8
:1036D4000AEF3400F50B22A31236E1FD22E0FCA32D
:1036E400E0228E828F83123F16850E82850F83E837
:1036F400F0A3E9F022C082C0839002E1E06A700383
:10370400A3E06B70067AE17B0280047A007B0002FE
:103714002A3B74F7121D877F00EF75F003A4F8A904
:10372400F0EC28F8ED39F988828983E06A7003A304
:10373400E06B7006E8FAE9FB800B0FEFC3940240DC
:10374400D87A007B007F01021E5974F6121D87127D
:103754003CFF70067A007B008007A3A3A3A3123367
:1037640081023DC074F2121D87E9FE740E121D63BE
:103774001237C87410121D63123C308C828D83E0A2
:103784006402703BA3123F1288828983E0F50CA384
:10379400E0F9A80C74026870037429697021750C2F
:1037A40002750D00780C121EE37808121EE3780AE5
:1037B400121EE3EEF9120F267406121D2D800279F3
:1037C40001023E30E0F50AA3E0F50B2274E8121D75
:1037D4008774FB121D17E9851882851983F08A16F0
:1037E4008B178C0E8D0F741F121D63123C307421C5
:1037F400121D631237C87423121D63123C1A75100C
:10380400008C828D83A3A3A3E0A2E4502A741D122A
:103814001D631234918A828B83E58245837003028F
:1038240038DC790AAC0EAD0FAA16AB17121D85E968
:10383400F51060030238DF850E82850F83E0640291
:103844006003023B95A3123F12850882850983A376
:10385400858212858313E50E2406F50CE50F123BD1
:10386400F188828983E0FAA3E0F9EA2400F514E4FC
:1038740039F5157814121F6D010000280128A438A9
:10388400070002287B390328EB380029A53A0129CF
:10389400CD3A0229743A0329A53A0429363B953BCB
:1038A400EE4F703E850C82850D83123C0BFAE9FBCA
:1038B4008A828B83E0850A82850B83123C47121E21
:1038C400E38A828B83A31236E1FDAA08AB0912179F
:1038D400B47402121D2D800375100EA91074050214
:1038E4003F1C75100B80F4EE4F70F7850A82850B30
:1038F400837401F0123C20850882850983F07C00E2
:103904007D00850E82850F83A3A3A3A3E02401FA7F
:10391400A3E03400FB120DE8EA4B60418A828B83FA
:10392400E02402F8850A82850B83E028F0EA240467
:10393400F8EB3400F988828983E085128285138349
:10394400123C59123C47121EE38A828B831236DBE7
:10395400E5082403FAE5093400FB0238D2850A821B
:10396400850B83E02404F07C047D007900AA12AB6B
:10397400131217CC0238DFEE4F60030238E6123C14
:1039840020FEA3E0FF850A82850B837404F0EE8594
:103994000882850983F0EF851282851383F074030E
:1039A400121D63AC82AD83EEFAEFFB123CED7003A3
:1039B400023A518A828B83A3A3123C167401121D0E
:1039C4006385820E85830F780E121EE37405121D23
:1039D40063121EFA7CFF7DFF120DEE7404121D2D7E
:1039E4008B0FEA450F7033850C82850D83123BF6ED
:1039F400121EE3850C82850D83A3121EFA7C027DC0
:103A0400007A237B82120C1A7404121D2DE9700AA9
:103A14007401121D6374FFF0A3F08E828F83E0643F
:103A2400027034750C02750D00780C121EE38E8240
:103A34008F831236DBE5082404FAE50912300712F5
:103A44001D2D850A82850B83E024028009740112EE
:103A54001D63EEF0A3EFF07401121D63123C07F036
:103A64007401121D63A3123BFFA3A3A3F00238DF6A
:103A7400EE4F60030238E6850C82850D831236DC36
:103A8400AA16AB17120F1A850A82850B837402F0EB
:103A9400EA850882850983F0851282851383EB8089
:103AA400CBEE4F60030238E6123C20F8A3E0F98520
:103AB4000A82850B837402F0E8850882850983F005
:103AC400E985128285138380A3850C82850D831278
:103AD40033811217AEEAFC8C82A882C39EE49F4015
:103AE4004BE86E7001EF70047C00801F851882859E
:103AF4001983E0FAEE2AFAEF3400FBC3EA98EB9458
:103B0400005003E08004EECCC39CFCEC850A828563
:103B14000B83F08C0A750B00780A121EE3850C8265
:103B2400850D83E02EFCA3E03F0238CD751007021B
:103B340038DFEE4F60030238E6850C82850D831270
:103B44003F12850A82850B837407F0888289831269
:103B54003BFF123BE7E0851282851383F0E82402E1
:103B6400FAE93400FB8A828B83123BFF123C381241
:103B74003C07A3123C41123C10F0E82405F8E93458
:103B840000F988828983123C10A3123C59A3023A9B
:103B94006D741D121D63123CF870030238DC123F71
:103BA40012880C890DE8450D70030238DC8E108FE5
:103BB400117810121EE3780A121EE37808121EE32D
:103BC4007406121D63E0F9AC0EAD0FAA16AB17858F
:103BD4000C82850D83121D857406121D2DE9F510C6
:103BE4000238DFF088828983A322F50CEF3400F5D4
:103BF4000D22E0F50E750F00780E22E0850882850F
:103C0400098322123C6022123F16E822123C60A370
:103C1400A322A3A3A3A3E0FEA3E0FF22850C828535
:103C24000D83E0F8A3E0F5838882E022E0F508A3A1
:103C3400E0F50922A3A3F08A828B83A322122958D8
:103C4400A3A322F08A828B83123C5022E0F50A75EA
:103C54000B00780A22123BE7123C6022E0850882BE
:103C6400850983A3A32274EE121D8774FE121D1707
:103C74008A0A8B0BECFAEDFB7414121D63E0F51049
:103C8400A3E0F5117416121D63E0FE7418121D638F
:103C9400E0F50EA3E0F50F851882851983AC82AD9B
:103CA40083123CED603E851882851983123CF860CE
:103CB4002FA3A3123C30E50845096024780E121E98
:103CC400E37810121EE3EEF9AC0CAD0DAA0AAB0BAF
:103CD400850882850983121D857404121D2D8006B2
:103CE400790E8002790102312D120DE88A0C8B0DB8
:103CF400EA450D22123385123CFF22120EAE8A824F
:103D04008B83E58245832274F6121D8774FE121D8F
:103D140017740C121D63123C0B851882851983F0ED
:103D24007401121D63E9F0E4F508F5097808121E20
:103D3400E37508027808121EE37404121D63858279
:103D4400088583097808121EE3120F027406121DF7
:103D54002D7402121D2D806474F7121D87EAFEEB88
:103D6400FF89087C187D03120F1AEA5402600BA91C
:103D740008EEFAEFFB120DDC800279010237497478
:103D8400F6121D8774FF6A700374FF6B701C7B004E
:103D9400EB75F003A4F8A9F0EC28F8ED39F9123D1D
:103DA400C50BEBC39402501480E6120EEA8A088B0A
:103DB40009A808A909E8496003123DC57F02021E4B
:103DC400598882898374FF122956E4F02274F6120A
:103DD4001D87120EEA8A828B83E58245836006A3DF
:103DE400A3E0FA80027A007B0080D174F2121D876E
:103DF4008A088B09ECFEEDFF740E121D63E0F50AD0
:103E0400123E35701CEEFCEFFD7AFF7BFF123E354F
:103E140070047911801688828983E508F0A3E50986
:103E2400F088828983A3A3E50AF079007F06021E45
:103E340059120EEA8A0C8B0DA80CA90DE8492274BC
:103E4400EE121D87EAFEEBFF8C088D09890C7412B3
:103E5400121D63123F127414121D631236DC7416A1
:103E6400121D63123381750D00EC4D6003023F0691
:103E74007402650C6003023F01888289831236E173
:103E8400F9EC2400F50EE439F50FEAF4F8EBF4F953
:103E9400EC58F8E50F59F9E849705DE5082406F88F
:103EA400E5093400F9880A890B8882F583123016F3
:103EB400120F1A8A108B11E50E65107004E50F6558
:103EC400116042780E121EE3850A82850B8312303C
:103ED40016120F207402121D2DE9F50D7027780EAD
:103EE400121EE3850882850983A3A3123014120FDE
:103EF400327402121D2D800D750D808008750D0D14
:103F04008003750D0BA90D0235E78E828F83123F56
:103F14001622E0F8A3E0F922121D2D7F10021E598B
:103F24003400F50D850C82F58322E028FEA3E039E8
:103F3400FF8E828F83227916850A82850B83123342
:103F440085120EFC74082274F2121D87EAFEEBFF40
:103F5400890B7401650B600E7402650B7063790143
:103F6400121106E9705BEEFAEFFB123FC860477569
:103F74000A00800B7C177D0079001217CC050A908B
:103F840002E5E0F8E50AC3985021E50A75F017A4A4
:103F9400F8A9F0850882850983A3A3E028FAA3E0A1
:103FA40039FB8A828B83122A4270C985088285096B
:103FB4008374FFF0A3F07C187D03EEFAEFFB120F7D
:103FC40014023E30120EE48A088B09EA4509227471
:103FD400F2121D878A088B09ECFEEDFF740E121D88
:103FE400631237C8900B1CE0F4603D7A097B001221
:103FF40017D8EA4B60328A828B8374B1F0A3E4123F
:104004003C3AA3123C38A3E508F0A3E50912402F7B
:10401400EEF0A3EF12402FA3A3E50AF0A3E50BF003
:10402400900B1CE0F91217E4023E30F08A828B8375
:10403400A3A3A3A3A322C082C0839061907404F0BD
:10404400A37448F0A37402F09061807440F090610E
:10405400BC7403F09061877419F0906265741BF06E
:1040640090619C740DF090619A7433F0A37455F0D0
:104074009061A0743AF090055CE064017009C2910B
:104084009003C6746780059003C67461F090281A83
:10409400E493906186F0902814E493F46027E49309
:1040A400540FF8906185E0686012E5C65480444975
:1040B400F5C6E59E547F644970F8E8F053C680E580
:1040C4009E547F70FA790512143C02424FC082C09C
:1040D40083E5A8F853A87E906181E4F0A3F0A3F0EF
:1040E400C2BA539AFEC289759B00C2C275E90075B3
:1040F400910075BF0075A91175B905906181F0A390
:1041040074C0F0A3E4F0D2BA439A0174805842A870
:1041140002424FC082C08374F8121D179003C4E09A
:10412400F8A3E0F9E84970030242459003C4E0545F
:104134004060237908851882851983AA82AB83128B
:1041440012B6851882851983AA82AB83120F9890C0
:1041540003C4E054BFF0E054806010790C7A807B93
:10416400051212B69003C4E0547FF0E0A2E050318F
:1041740090619A7433F0A37455F09061A0743AF08E
:1041840090055CE064017009C2919003C674678075
:10419400059003C67461F0120F9E9003C4E054FEB0
:1041A400F0E05402603190619A743FF0A3745AF0C5
:1041B4009061A0747FF090055CE064017009D29175
:1041C4009003C6747180059003C6746AF0120F9E42
:1041D4009003C4E054FDF0E054046013902818E404
:1041E40093906186F0120FA49003C4E054FBF0E0B6
:1041F40054086013902819E493906186F0120FA478
:104204009003C4E054F7F0E05410601390281AE4CB
:1042140093906186F0120FA49003C4E054EFF0E091
:104224005420600A120FA49003C4E054DFF0A3E00A
:104234005401600D1211DE120FAA9003C5E054FE62
:10424400F07408121D2D8003F0A3F0D083D08202F5
:10425400011F74EC121D8774F4121D1785188285D2
:104264001983AC82AD837583817582917404121CA9
:104274002A90281893F460030243E3907808E0C37B
:10428400940250030243C37404121D63AC82AD83D1
:1042940075838175825A7408121C2A8518828519BF
:1042A400838582128583137404121D63AC82AD83EB
:1042B400750EFF750FFF7FFF7E00750C48750D7836
:1042C400801574086E700302435674096E700302FD
:1042D4004356740A6E607B850C82850D83780812C0
:1042E4001BCF8C828D83A909E50AC9F8881074183C
:1042F4007808121B10E5104508F8C3E098A3E0996C
:10430400850C82850D837808121BCF40188C828D12
:104314008374187808121B10E5104508F8E0C39858
:10432400F8A3E0801C74187808121B10E5104508E7
:10433400FAE9FB8C828D83E0F8A3E0F9EAC398F8EC
:10434400EB99F9C3E8950EE9950F5006880E890F8D
:10435400EEFF0EE50C2404F50CE50D3400F50DEE2E
:10436400C3941350030242C674FF650E700474FFB5
:10437400650F60238F0874027808121D04744825A1
:1043840008F58274783509F5837808121BCF8512F5
:1043940082851383E508F0EC24020C0CED3400FD57
:1043A400851282851383A3858212858313740C126C
:1043B4001D63E5826C7003E5836D60030242B4758E
:1043C40008017509007808121EE37402121D63AC1B
:1043D40082AD837A067B0A1217307402121D2D7483
:1043E4000C121D2D7F0C021E59C082C0839061AE39
:1043F4007468F0A3746AF090624574FBF0A304F04F
:1044040053F4FD43FE0290055C7401F09061A0E05A
:10441400643A90619A70237433F0A37455F09061F8
:10442400A0743AF0740164017009C2919003C674D7
:104434006780289003C674618021743FF0A3745A86
:10444400F09061A0747FF0740164017009D29190BE
:1044540003C6747180059003C6746A02424E7F04D9
:10446400021E59C082C08390050EE06401700A9058
:104474000513E06004790C8002790002424FC08287
:10448400C08375E1F1900511E06055146008146073
:104494005914605180591211F0900507E0F97A0817
:1044A4007B051213BE9081F5121BED1213F490815B
:1044B400DD121BED1213CA900512E0F91213D6791E
:1044C40001121430900505E02416F8A3E03400F935
:1044D400888289837408F0A37412F0790002424F31
:1044E4001211F680B41211FC80AF12120280AA7964
:1044F4001280EA74F4121D8775D90D9004F6E0A2B7
:10450400E0E4331313F8900507E0C4333354C04890
:104514004401F5D97805790588828983A3A3A3E0AA
:10452400F5D988828983A3A882A983E8640B7003E0
:10453400E9640570E378F6790488828983A3E0F559
:10454400D988828983A3A882A983E864FC7003E9DB
:10455400640470E575E1959004F6E0F97AF77B045C
:104564001213C4900B3E74A2F0A37411F0A374FE52
:10457400F0A37412F0A374FEF0A37412F0A374FEFB
:10458400F0A37412F0A374A8F0A37411F0A374FE42
:10459400F0A37412F0A374C0F0A37411F0900B4C48
:1045A40074FEF0A37412F0A374FEF0A37412F0A3CB
:1045B40074FEF0A37412F0A374FEF0A37412F0A3BB
:1045C40074FEF0A37412F0A374FEF0A37412F090BE
:1045D4000505E0F8A3E0F5838882A3A37808121BFD
:1045E400CF9081ED7808121B5B9081A17808121B93
:1045F400A9900505E0240EF8A3E03400F988828927
:10460400837808121BDE900505E02414F8A3E03437
:1046140000F9888289837413F09003C27402F00253
:104624004462C082C083900517E02407F5D9900541
:1046340007E0C4333354C0F5D978057905888289F5
:1046440083A3A3A3E0F5D988828983A3A882A9833D
:10465400E8640B7003E9640570E3900517E0601FDC
:1046640078057905FAE82413F582E93400F583E046
:10467400F5D988828983A3A882A9831AEA70E6906F
:104684000537E02407F5D9900507E0C4333354C057
:104694004404F5D97805790588828983A3A3A3E026
:1046A400F5D988828983A3A882A983E8640B70035F
:1046B400E9640570E3900537E0601F78057905FA31
:1046C400E82433F582E93400F583E0F5D98882895A
:1046D40083A3A882A9831AEA70E675E195900B3E3C
:1046E40074AEF0A37411F0A374FEF0A37412F0A3DB
:1046F40074FEF0A37412F0A374FEF0A37412F0A37A
:1047040074A8F0A37411F0A374FEF0A37412F0A3C0
:1047140074C0F0A37411F0900B4C74FEF0A37412E7
:10472400F0A374FEF0A37412F0A374FEF0A3741249
:10473400F0A374FEF0A37412F0A374FEF0A3741239
:10474400F0A374FEF0A37412F09081CD121BED90CF
:104754000505E0240EF8A3E03400F9888289831269
:104764001BF9900505E02414F8A3E03400F98882CD
:1047740089837412F09003C2740102424EC082C055
:1047840083900517E02407F5D9900507E0C4333377
:1047940054C04402F5D97805790588828983A3A396
:1047A400A3E0F5D988828983A3A882A983E8640B4E
:1047B4007003E9640570E3900517E0601F780579DC
:1047C40005FAE82413F582E93400F583E0F5D98885
:1047D400828983A3A882A9831AEA70E675E1959079
:1047E4000B3E74BAF0A37411F0A374BAF0A374115D
:1047F400F0A374BAF0A37411F0A374BAF0A3741103
:10480400F0A374BAF0A37411F0A374BAF0A37411F2
:10481400F0A374C0F0A37411F0900B4C74FEF0A3D9
:104824007412F0A374FEF0A37412F0A374FEF0A348
:104834007412F0A374FEF0A37412F0A374FEF0A338
:104844007412F0A374FEF0A37412F09081CD121BC5
:10485400ED900505E0240EF8A3E03400F988828980
:1048640083121BF9900505E02414F8A3E03400F941
:10487400888289837414F09003C2740402424EC087
:1048840082C083900517E02407F5D9900507E0C49A
:10489400333354C04406F5D9780579058882898371
:1048A400A3A3A3E0F5D988828983A3A882A983E876
:1048B400640B7003E9640570E3900517E0601F78EA
:1048C400057905FAE82413F582E93400F583E0F567
:1048D400D988828983A3A882A9831AEA70E69005FD
:1048E40037E02407F5D9900507E0C4333354C044B6
:1048F40004F5D97805790588828983A3A3A3E0F513
:10490400D988828983A3A882A983E8640B7003E908
:10491400640570E3900537E0601F78057905FAE8CF
:104924002433F582E93400F583E0F5D9888289835C
:10493400A3A882A9831AEA70E675E195900B3E74E8
:10494400B4F0A37411F0A374FEF0A37412F0A37472
:10495400FEF0A37412F0A374FEF0A37412F0A37417
:10496400FEF0A37412F0A374FEF0A37412F0A37407
:10497400C0F0A37411F0900B4C74FEF0A37412F009
:10498400A374FEF0A37412F0A374FEF0A37412F0E7
:10499400A374FEF0A37412F0A374FEF0A37412F0D7
:1049A400A374FEF0A37412F09081CD121BED900558
:1049B40005E0240EF8A3E03400F988828983121BF1
:1049C400F9900505E02414F8A3E03400F9888289FD
:1049D400837415F09003C2740302424EC082C083F4
:1049E400900505E0F8A3E0F5838882A3A3A3A3A31D
:1049F400A3E402424C74F7121D879003F0E0F875AB
:104A0400F004A4C8AAF02AF974F228F8740339F956
:104A1400E82405FAE93400FB8A828B83E0FCA3E0F6
:104A2400FD88828983A3A3A3A3A3A3A3A3A3ECF0D8
:104A3400A3EDF088828983A3A3A3A3A3A3A3E02463
:104A4400FFF8A3E034FFF98A828B83E8F0A3E9023C
:104A54004C9E74F7121D87EAFEEBFF9061D0E06074
:104A640003024B3375D90E75D90375D904EE248C22
:104A7400F582EF3400F583E5822408F8E5833400F9
:104A8400F9E0F5D9A3E865827003E9658370F2EE75
:104A94002484F582EF3400F583E5822404F8E58369
:104AA4003400F9E0F5D9A3E865827003E965837001
:104AB400F275E1957908EE248CFAEF3400FB1212BA
:104AC400AA7904EE2484FAEF3400FB1212AA7C00C3
:104AD400EEF8EFF9ECFAC3E49AFA95E0FBEE2AFA61
:104AE400EF3BFBEA248BF582EB3400F583E0C0E076
:104AF400E824ABF582E93400F583D0E0F00C888239
:104B04008983A3A882A983ECC3940840C7EE2470C8
:104B1400F582EF3400F583E0F8A3E0F9EE2472F5B2
:104B240082EF3400F583E8F0A3E9F079018002799B
:104B340000024C9FC082C08375D90275D90375D910
:104B44000575E195EA2470F582EB3400F583E0F80D
:104B5400A3E0F9EA2472F582EB3400F583E8F0A3CC
:104B6400E9F0790102424F74F6121D87EAFEEBFF69
:104B74009005607406F07508607509057808121EC2
:104B8400E37C0179031212F27402121D2D75D90609
:104B940075D903758260758305E0F5D9A3E5826450
:104BA400657004E583640570F075E1959003C2E0D7
:104BB4006408701EEE2470F582EF3400F583E0F88B
:104BC400A3E0F9EE2472F582EF3400F583E8F0A354
:104BD400E9F07901024D6B74F6121D87EAFEEBFFD2
:104BE4009061D0E070667801900560740BF09003DA
:104BF400C2E0640770197508607509057808121E0B
:104C0400E37C0179031212F27402121D2D780574EB
:104C14000128F5D975D903758260758305E8FAE032
:104C2400F5D9A31AEA70F875E195EE2470F582EFD0
:104C34003400F583E0F8A3E0F9EE2472F582EF3452
:104C440000F583E8F0A3E9F0790180027900024DD0
:104C54006B74F7121D87EAFEEBFF75D90375D90350
:104C640075D90DEE24DEF582EF3400F583E0F5D935
:104C740075E19579041213FAEE2470F582EF34008D
:104C8400F583E0F8A3E0F9EE2472F582EF3400F541
:104C940083E8F0A3E9F079018001F07F01021E5955
:104CA40074F6121D87EAFEEBFF9061D0E0F8748081
:104CB400C398FAEE2483F582EF3400F583E06004B0
:104CC400780480027800E8240BF8EAC398500302C1
:104CD4004D697D09900560EDF0EE24E3F8EF3400B2
:104CE400F97A617B057C0888828983E08A828B83D8
:104CF400F088828983A3A882A9838A828B83A3AA4A
:104D040082AB831CEC70E0EE2483F582EF3400F573
:104D140083E0601D7508607509057808121EE37C40
:104D2400097903EEFAEFFB1212F27402121D2D7DC3
:104D34000D74012DF5D975D9037582607583058DC0
:104D440008E0F5D9A31508E50870F675E19579042E
:104D54001213FAEE241DF582EF3400F583E4F0A378
:104D6400F07901800279007F02021E5974F6121D47
:104D740087EAFEEBFF9061D0E0F87480C398FAEE06
:104D84002483F582EF3400F583E060047804800224
:104D94007800E82408F8EAC3985003024E707D06B0
:104DA400900560740CF09003DFE0900561F07AE008
:104DB4007B03786279057C028A828B83E08882890E
:104DC40083F08A828B83A3AA82AB8388828983A39C
:104DD400A882A9831CEC70E07AE27B037C028A82BD
:104DE4008B83E088828983F08A828B83A3AA82AB37
:104DF4008388828983A3A882A9831CEC70E0EE24B3
:104E040083F582EF3400F583E0601D750860750951
:104E1400057808121EE37C067903EEFAEFFB121202
:104E2400F27402121D2D7D0A74012DF5D975D90372
:104E34007582607583058D08E0F5D9A31508E5082A
:104E440070F675E19579041213FAEE2470F582EF89
:104E54003400F583E0F8A3E0F9EE2472F582EF3430
:104E640000F583E8F0A3E9F0790180027900024DAE
:104E74006B74F6121D87EAFEEBFF9061D0E0F874C4
:104E840080C398FAEE2483F582EF3400F583E06062
:104E940004780480027800E82404F8EAC3985003F4
:104EA400024F4F7802900560E8F0EE24F5F582EFAA
:104EB4003400F583E0900561F0EE2483F582EF344D
:104EC40000F583E0601B7508607509057808121EFB
:104ED400E37C027903EEFA1212F27402121D2D78A9
:104EE40006740128F5D975D9037582607583058820
:104EF40008E0F5D9A31508E50870F675E195EE24E8
:104F040074F582EF3400F583E4F0EE2480F582EF4B
:104F14003400F583E4F0EE241DF582EF3400F583CC
:104F2400E4F0A3F079041213FAEE240DF582EF34C1
:104F340000F583E0F8A3E0F9EE2472F582EF340083
:104F4400F583E8F0A3E9F0790180027900024D6B62
:104F540074F6121D879061D0E0F87480C398FCEA5F
:104F64002483F582EB3400F583E060047804800246
:104F74007800E82404F8ECC398405B79029005605B
:104F84007407F0EA24F6F582EB3400F583E090052B
:104F940061F0EA2483F582EB3400F583E060187550
:104FA40008607509057808121EE37C02091212F2E2
:104FB4007402121D2D7906740129F5D975D903756A
:104FC4008260758305E9F8E0F5D9A318E870F875EF
:104FD400E195790180027900024D6B74F5121D8709
:104FE400E9FCA2AFE433F50AC2AF7D0080010DEA0B
:104FF400246FF582EB3400F583E0F8EDC398501A82
:105004008D08EA2508F8EB3400F9E8246BF582E909
:105014003400F583E06C70D68024EA246FF8EB3416
:1050240000F9E0FEEA2EFAEB3400FBEA246BF58289
:10503400EB3400F583ECF088828983E004F0E50A20
:10504400A2E092AF7F03021E5974F6121D87A2AF2D
:10505400E433FDC2AFEA246FF582EB3400F583E05C
:1050640014F07C0060368C08EA2508F8EB3400F96B
:10507400E8246CF582E93400F583E0C0E0E8246BB1
:10508400F582E93400F583D0E0F00CEA246FF58270
:10509400EB3400F583E0F8ECC39840CAEA246EF5DB
:1050A40082EB3400F58374FFF0EA246AF582EB3472
:1050B40000F583E4F0EDA2E092AF024D6BC082C034
:1050C40083E5A8F8C2AFEA246BF582EB3400F583DC
:1050D400E9F0EA246AF582EB3400F583E4F0E8A20F
:1050E400E792AF02424F74F3121D87EAFEEBFFEC26
:1050F400FAEDFB8A828B83A3A3A3A3E0541FF0EEF3
:105104002436F582EF3400F583E4F0F50AEEFCEF83
:10511400FD8A828B83E0C0E0EC245DF582ED3400EF
:10512400F583D0E0F0750B00E50A33333354F8F51A
:105134000C8A828B83E0F508750900E50B78081268
:105144001CE5E508A2E0502FEE2436F8EF3400F910
:1051540088828983E0F508EE2508F508EF3400F528
:1051640009E5082438F582E5093400F583E50CF0F7
:1051740088828983E004F0050B050CE50BC39408D1
:1051840040AF050A8A828B83A3AA82AB838C828D6B
:1051940083A3AC82AD83E50AC39405500302511581
:1051A4007F05021E5974F7121D879003EEE0640117
:1051B40070077A007B000253207E009003F4E070B5
:1051C400F17401F0A3E4F0A3F090045404F090040B
:1051D40057E4F0A3F090045A04F09003F7E4F0A32A
:1051E400F0A3F0A3F090040104F0900427E4F090FD
:1051F40081B5121BED90040A121BF990040EE4F021
:10520400A3F0A3F0900472F0900466F090045B7431
:1052140080F0A3E4F0900461F0900459F09004DD70
:10522400F0A3F0A3F0A3F0A3F0A3F0A3F0A3F090F5
:1052340004E6F0900475F09004C5F0A3F09081B5F5
:10524400121BED9004C7121BF99081B5121BED904F
:1052540004CB121BF99004D1E4F09004D3F0900431
:10526400CFF09004E9F0A3F0A3F0A3F0A3F0A3F02F
:10527400A3F0A3F078EE7903E8246FF582E9340013
:10528400F58374FFF00E88828983A3A882A983EE34
:10529400C3940440E37AEE7B0378FD790488828921
:1052A40083E0C0E0EA2461F582EB3400F583D0E0CA
:1052B400F088828983A3A882A9838A828B83A3AA84
:1052C40082AB83E864027003E9640570D07AEE7BF4
:1052D4000378D5790388828983A3E0C0E0EA24E7D0
:1052E400F582EB3400F583D0E0F088828983A3A8AB
:1052F40082A9838A828B83A3AA82AB83E864DD704C
:1053040003E9640370CF9003EEE004F064017008D5
:105314009003F6E09003F0F07AF27B03024C9FC016
:1053240082C0839003F5E4F09003F4F09003EEF070
:10533400A3F0A374FFF075E1F102424FC082C08371
:10534400780079009003F5E0600478F279038882AC
:105354008983A3A3A3A3E0F902424F74F6121D8725
:10536400EAFEEBFF8E828F83A3A3A3E0600F8E82FD
:105374008F83A3A3A3E4F09003EFE014F09003EE73
:10538400E014F070069003F074FFF08E828F83A314
:10539400A3E4F0900502E0700D9003EFE064017067
:1053A4000579001213DCEE2465F582EF3400F583F1
:1053B400E0F8A3E0F9E8496029EE2465F8EF340049
:1053C400F9880889098882F583E0FCA3E0FD90034D
:1053D400F0E0FA7B00120FCE850882850983E4F0A1
:1053E400A3F0EEFAEFFB121322024D6B74F7121DB9
:1053F40087EAFEEBFF8E828F83A3A3A3A3E0FA7B4D
:1054040000121010EEFAEFFB12127412130A024C7F
:105414009FC082C08378D5790388828983A3E4F00E
:1054240088828983A3A882A983E864DD7003E96480
:105434000370E69003D602477C74F6121D87EAFED9
:10544400EBFFEC2403F8ED3400F988088909EC2417
:1054540007F8ED3400F9E8FCE9FD8C828D83E0F86F
:10546400A3E0F9850882850983E0FAA3E0FB121C16
:105474008CEE240DF582EF3400F583E8F0A3E9F017
:105484008C828D83E0F8A3E0F9850882850983E0A6
:10549400FAA3E0FB121C8C8B09EA45096013EE2485
:1054A4000DF582EF3400F583E02401F0A3E034002D
:1054B400F0024D6B74F6121D87EAFEEBFFEE242E0C
:1054C400F582EF3400F583E0FCA3E0FD780079FA7F
:1054D400ECFAEDFB121C8CEE2470F582EF3400F52F
:1054E40083E8F0A3E9F0780079FAECFAEDFB121CFA
:1054F4008C8B09EA45096013EE2470F582EF3400C1
:10550400F583E02401F0A3E03400F0024D6B74F065
:10551400121D87EAFEEBFF7410121D637808121B3C
:10552400CF1213A08A0C8B0D8C0E8D0F9081E57811
:105534000C121B5B9081A1780C121BA9780C121E13
:10554400DF8E828F83E0F8A3E0F5838882A3A31221
:105554001BED1225917404121D2DE9600302565FA0
:105564008E828F83E02402F8A3E03400F9E8FAE99C
:10557400FB8A828B837808121B6E9081A1780812B3
:105584001BCF8A828B837808121BBCEE240BF58216
:10559400EF3400F583C082C0838E828F83A3A3A3DC
:1055A400A3A3E02401F8A3E03400F9D083D082E07F
:1055B400687003A3E069700579010256618E828FD9
:1055C40083A3A3A3A3A3A3A3E02401F0A3E0340033
:1055D400F0EE2474F582EF3400F583E06401703654
:1055E400EE2475F582EF3400F583E0F8A3E0F98E3C
:1055F400828F83A3A3A3A3A3A3A3E0687003A3E060
:10560400697013EE2475F582EF3400F583E024010C
:10561400F0A3E03400F0EE2480F582EF3400F5834B
:10562400E064017036EE2481F582EF3400F583E006
:10563400F8A3E0F98E828F83A3A3A3A3A3A3A3E07B
:10564400687003A3E0697013EE2481F582EF3400DF
:10565400F583E02401F0A3E03400F079007F080230
:105664001E5974F7121D879003F0E0F875F004A436
:10567400C8AAF02AF974F228FE740339FF8028EED0
:105684002465F8EF3400F988828983E0FCA3E0FD07
:1056940088828983E4F0A3F08E828F83A3A3A3A3DB
:1056A400E0FA7B00120FCEEE2465F582EF3400F5AC
:1056B40083E0F8A3E0F9E849604FEE2464F582EF53
:1056C4003400F583E0F5087808121EE7EE2463F54C
:1056D40082EF3400F583E0F9EE2465F582EF3400BF
:1056E400F583E0FCA3E0FDEEFAEFFB12129E7401D9
:1056F400121D2DE96089EE2465F582EF3400F583EF
:10570400E0F8A3E0F9E84970137C007D008E828FF5
:1057140083A3A3A3A3E0FA7B00120FCE024C9F74D1
:10572400F2121D87EAFEEBFF890A740E121D63E074
:10573400FAEE2462F582EF3400F583E0640160033D
:105744000257EF9061D0E0F87480C398F50CEE2412
:1057540083F582EF3400F583E060047804800278F6
:10576400008908E928F8E43400F9E824020808E983
:105774003400F9E50C98E499A2D265D0334068EA84
:105784007005750B028003750B01E0603975090023
:105794007808121EE37A607B051212D47402121D7B
:1057A4002D7508607509057808121EE3AC0AA90B6B
:1057B400EEFAEFFB1212F27402121D2D7404250A84
:1057C400F50A7C607D057401250AF5D9850BD9E5B8
:1057D4000A600D8C828D83F8E0F5D9A318E870F87F
:1057E40075E195790080067907800279FF7F0602CA
:1057F4001E59C082C083E960208C828D83E08A8236
:105804008B83F08C828D83A3AC82AD838A828B835D
:10581400A3AA82AB8319E970E0ECFAEDFB02424FD4
:1058240074EA121D87907803E06442705E90055F0D
:10583400E014F07056C2AF12583E00782AD0E0F659
:1058440018D0E0F6E59F5407F970059081D58003E0
:105854009081B17808121BCFE9C4C0E07829E655DD
:1058640008F50808E65509F509740B7808121CF5C3
:10587400D0E02508F8906270E0A2E740F8E8C3336E
:10588400906272F0906270E0D2E0F09003F0E0F485
:105894007003025C47E0F875F004A4C8AAF02AF982
:1058A40074F228FE740339FFEE2402F582EF34010A
:1058B400F583E0F8A3E0F9E849601EEE2402F582DE
:1058C400EF3401F583E0FAA3E0FBEE2401F582EF67
:1058D4003401F583E0F91218088E828F83A3A3A301
:1058E400A3A3A3A3E0F8A3E0F98E828F83A3A3A3C9
:1058F400A3A3E8F0A3E9F0906054E09003C9F0900A
:105904006055E09003CAF0906056E09003CBF090AD
:105914006057E09003CCF0906058E09003CDF09095
:105924006059E09003CEF090605AE09003CFF0907D
:10593400605BE09003D0F090605CE0FC9003D1F0F9
:1059440090605DE0FB9003D2F090605EE0FD900318
:10595400D3F090605FE0FA9003D4F09003CFE08C32
:10596400082508F8E43400F98D08E82508F8E93436
:1059740000F98B08E82508F8E93400F98A08E825D5
:1059840008FAE93400FBEE24F7F582EF3400F583DE
:10599400E02AF0A3E03BF08C08EE24F9F582EF3422
:1059A40000F583E02508F0A3E03400F0EE24FBF5D5
:1059B40082EF3400F583E02401F0A3E03400F0EE3C
:1059C40024FFF582EF3400F583E0F8A3E0F9E84919
:1059D4006042906000E0C333FCE433FDE82CF582C0
:1059E400E93DF583E02AF0A3E03BF0906000E0FAA3
:1059F4009003D1E0FCEAC333FAE433FBE82AF8E984
:105A04003BF9E8244AF582E93400F583E02CF0A35D
:105A1400E03400F09003CFE070119003D2E0700BFB
:105A2400A3E07007A3E07003025B278E828F83A339
:105A3400A3A3A3A3E0F8A3E0F9EE240DF582EF34C9
:105A440000F583E028F8A3E039F9EE240BF582EFA2
:105A54003400F583E8F0A3E9F0EE240FF582EF3487
:105A640000F583E4F0EE241CF582EF3400F583E0C6
:105A74006401701EEE2420F582EF3400F583E0F813
:105A8400A3E0F9EE241DF582EF3400F583E8F0A3DA
:105A9400E9F09003CAE06052EE241CF582EF340072
:105AA400F5837401F0EE246AF582EF3400F583E0A7
:105AB4007038EE2474F582EF3400F583E0702BEE39
:105AC4002480F582EF3400F583E0701EEE2420F587
:105AD40082EF3400F583E0F8A3E0F9EE241DF582AB
:105AE400EF3400F583E8F0A3E9F0906062E070031E
:105AF400025BDA8E828F83E0F8A3E0F9E82406FCE7
:105B0400E93400FDE82402FAE93400FB12139A8E0A
:105B1400828F83E02412F8A3E03400F98882898319
:105B2400025BE49003D1E0603AEE240FF582EF3497
:105B340000F583E4F0EE241CF582EF3400F583E0F5
