:020000040000FA
:1008000092C0FFFF0000007C41414141FFFFFFFF1C
:10081000FFFFFFFFFFFFFFFFFFFFFFFFFFFFFFFFE8
:10082000000102030405060708090A0BFFFFFFFF8A
:10083000020C8302174FFFFFFFFFFFFFFFFFFFFFC9
:10084000FFFFFFFFFFFFFFFFFFFFFFFFFFFFFFFFB8
:10085000FFFFFFFFFFFFFFFFFFFFFF021BAAFFFFDE
:10086000FFFFFF021B8CFFFFFFFFFFFFFFFFFFFFEC
:10087000FFFFFFFFFFFFFFFFFFFFFFFFFFFFFFFF88
:10088000FFFFFF0217C2FFFFFFFFFFFFFFFFFFFF9A
:10089000FFFFFFFFFFFFFFFFFFFFFF021B66FFFFE2
:1008A000FFFFFFFFFFFFFFFFFFFFFFFFFFFFFFFF58
:1008B000FFFFFF021603FF0000B40000280028001D
:1008C000283075A000A000A000A00000080008E0EB
:1008D00001F0001000100010001000100010005077
:1008E000005000500010001000D007000000000071
:1008F000000F0001000500307507001000010081A5
:10090000FF0000FFC91DE71DCF1DFF020202080204
:100910005000A0000000E80302E884010000D98430
:1009200002E2840100009809020685010000B1027C
:1009300002E284010000990902F084010000C7026C
:1009400002E2840100009A0902EE84010000C9025B
:1009500002E2840100009B0902EC84080000CA0244
:1009600002E2840100009C0902E4840100009D0968
:10097000FF0100FF2002E884010000D38402E2842A
:10098000010000010A02DC84000000000002DE8495
:100990000300001703A523A523A523A523A523A5AD
:1009A00023A523A523A523A523A523A523A523218B
:1009B0002639261B26FFFF02020202020202020261
:1009C000010D000000100102E884010000D0840243
:1009D000E284010000440A02028501000077070258
:1009E000E284010000450A0200850100009C8302A8
:1009F000E284010000460A02FE84010000818302B5
:100A0000E284010000470A02FC84010000ED82023A
:100A1000E284010000480A02FA84010000DB82023D
:100A2000E284010000490A02F884010000C9820240
:100A3000E2840100004A0A02F684010000FF8202FB
:100A4000E2840100004B0A02F48401000073830277
:100A5000E2840100004C0A02F2840100004D0A0108
:100A6000E803053F101C02E884010000CD8402E287
:100A700084010000F20A1058820200005E0802DEC3
:100A800084030000600802E0840100008F8302E21A
:100A900084010000F20A1068820200005F0802DE92
:100AA00084030000660802E084010000E383FFFF86
:100AB000FF00013075030201060000000000000085
:100AC0000000000000000000000000000000000026
:100AD0000000000000FFFF0600800CE8031409532B
:100AE000696D706C65424C455065726970686572DD
:100AF000616C051250002003020A00020106030285
:100B0000F0FF53696D706C6520424C452050657252
:100B10006970686572616C892A00008F2A0A4368CF
:100B20006172616374657269737469632031000274
:100B300043686172616374657269737469632032BA
:100B400000084368617261637465726973746963F4
:100B50002033001043686172616374657269737455
:100B6000696320340002436861726163746572696D
:100B70007374696320350002E884010000D68402A2
:100B8000E284010000AA0B0214850300003409026C
:100B9000E084010000AB0B02E284010000BC0B0208
:100BA0001085010000350902E084010000BD0B0240
:100BB000E284010000CE0B020E850200003609021D
:100BC000E084010000CF0B02E284010000E00B0290
:100BD0000C85000000370902DE840300003809029A
:100BE000E084010000E10B02E284010000F20B024C
:100BF00008850400003E0902E084010000F30BE5D3
:100C0000C754F84405F5C779012200000080FB12A3
:100C10000BFFB90003020C6DE479217808B80002DB
:100C20008004F709D8FCE479297802B8000280042E
:100C3000F709D8FCE490028078C479078002F0A319
:100C4000D8FCD9FA900943AA82AB839008B6784AB7
:100C500079048015E493A3AC82AD838A828B83F000
:100C6000A3AA82AB838C828D83D8E9D9E77582BB36
:100C700075839E7407120C9575820A75830C740037
:100C8000120C9575D00075813F751A80751B027521
:100C90009F00020C0FC09FF59FE473D09F22D0836A
:100CA000D082C09FE493C0E0740193C0E0740293CB
:100CB000F59F22E066701008A3E066700A08A3E0C2
:100CC00066700408A3E06622C3E7960809E7960861
:100CD00009E7960809E79622C3E09608A3E096087C
:100CE000A3E09608A3E09622C00AC3E096F50A089E
:100CF000A3E096420A08A3E096420A08A3E09645BC
:100D00000A7001D3D00A22080808EAC0E0EBC0E06C
:100D100086F0E7A4FA180986F0E7A42AFA180986EB
:100D2000F0E7A42AFA180986F0E7A42AFA1986F04F
:100D3000E7A4FBE5F02AFA190886F0E7A42BFBE507
:100D4000F03AFA190886F0E7A42BFBE5F03AFA1816
:100D5000180986F0E7A4C5F02BFBE43AFA1908E776
:100D6000C5F0C6A426F6E5F03BFBE43AFA1886F097
:100D7000E7A4F6E5F00826F6E43B08F6E43A08F6C0
:100D8000D0E0FBD0E0FA22E4CFC0E0E4CEC0E0E463
:100D9000CDC0E0E4CCC0E075F020C3E633F608E651
:100DA00033F608E633F608E633F6181818EC33FC89
:100DB000ED33FDEE33FEEF33FFC3EC9709ED9709FA
:100DC000EE9709EF97191919400FFFEC97FC09ED01
:100DD00097FD09EE97FE191906D5F0BEECF709ED5F
:100DE000F709EEF709EFF7191919D0E0FCD0E0FD8B
:100DF000D0E0FED0E0FF226016080808C6C313C684
:100E000018C613C618C613C618C613C6D5E0EA22FC
:100E10007009080808226016181818C6C333C608D7
:100E2000C633C608C633C608C633C6D5E0EA22E6CE
:100E300027F60809E637F60809E637F60809E6371F
:100E4000F622E026F608A3E036F608A3E036F60818
:100E5000A3E036F622E026F008A3E036F008A3E08F
:100E600036F008A3E036F022C3E697F60809E697C5
:100E7000F60809E697F60809E697F622C3E096F029
:100E800008A3E096F008A3E096F008A3E096F0220D
:100E9000E056F608A3E056F608A3E056F608A3E0ED
:100EA00056F622E056F008A3E056F008A3E056F00C
:100EB00008A3E056F022E0F608A3E0F608A3E0F667
:100EC00008A3E0F622E6F008A3E6F008A3E6F0089F
:100ED000A3E6F022E0FAA3E0FBA3E0FCA3E0FD22FE
:100EE000EAF0A3EBF0A3ECF0A3EDF022CAC0E0E639
:100EF000F0A308DAFAD0E0FA22CAC0E0E0A3C58283
:100F0000CCC582C583CDC583F0A3C582CCC582C5BF
:100F100083CDC583DAE6D0E0CA22C3E498F8E49929
:100F2000F9120F5B8026C3E49AFAE49BFBE920E701
:100F3000E9120F5BE498F8E499F922C3E498F8E425
:100F400099F9120F5BE498F8E499F9C3E49AFAE48A
:100F50009BFB22EB20E7CFE920E7E0B90010BB00C4
:100F600008E88AF084F8AAF022E4FBC8FA22EB70C1
:100F7000227B10C833C8C933C9335007C39AC3DBB7
:100F8000F280069A50012ADBEAC833F4C8C933F468
:100F9000C9FA2275F008E4C833C8C933C933C99AFD
:100FA000C99B5004C92AC93BD5F0ECFBC833F4C82F
:100FB000E4C9FA22600D08C6A2E713C618C613C614
:100FC000D5E0F322600C08C6C313C618C613C6D5F5
:100FD000E0F422700422600D18C6C333C608C6337D
:100FE000C6D5E0F41822251A10AF08F51A400215EC
:100FF0001B8008F51A4002151BD2AF22C0D0251A5B
:1010000010AF08F51A5002051B8008F51A500205AA
:101010001BD2AFD0D022251AF58210AF08F51A40A6
:1010200002151B8008F51A4002151BD2AF851B83E1
:1010300022251AF582E4351BF58322E473251AC5AF
:1010400082C0E0E51B34FFC583C0E0E51AC395828A
:1010500024F810AF0885831B85821A800885831BBE
:1010600085821AD2AFCEF0A3E520F0A3780AE60875
:10107000F0A3DEFAEFF0A3E58124FAF8E608F0A386
:10108000E608F0A3E608F0A30808E608F0A3E608DF
:10109000F0A315811581D0E0FED0E0F8158115810F
:1010A0001581E8C0E0EEC0E022251AC582C0E0E567
:1010B0001B34FFC583C0E0E51AC3958224F910AF45
:1010C0000885831B85821A800885831B85821AD236
:1010D000AFCEF0A3E520F0A3780AE608F0A3DEFA8D
:1010E000EFF0A3E58124FBF8E608F0A3E608F0A3FF
:1010F0000808E608F0A3E608F0A315811581D0E002
:10110000FED0E0F815811581E8C0E0EEC0E0228550
:101110001B83851A82E0A3FEE0A3F520780AE0A3F2
:10112000F608DFFAE0A3FFE0A3C0E0E0A3C0E0E040
:10113000A3C0E0E0A3C0E0E0A3C0E010AF08858258
:101140001A85831B800885821A85831BD2AFD083C2
:10115000D082020C9B851B83851A82E0A3FEE0A34C
:10116000F520780AE0A3F608DFFAE0A3FFE0A3C0C9
:10117000E0E0A3C0E0E0A3C0E0E0A3C0E010AF085F
:1011800085821A85831B800885821A85831BD2AFCE
:10119000D083D08222C0D0251AC582C0E0E51B349E
:1011A000FFC583C0E0E51AC3958224F310AF08851C
:1011B000831B85821A800885831B85821AD2AFC85B
:1011C000F0A3E9F0A3EAF0A3EBF0A3790AE709F0B2
:1011D000A3D8FAECF0A3EDF0A3EEF0A3EFF0A3D0C8
:1011E000E0F0A3D0E0F0A3D0E0F0A3E520F0A3E589
:1011F000F0F0A322851B83851A82E0C0E0A3E0F90A
:10120000A3E0FAA3E0FBA3780AE0F608A3DFFAE084
:10121000FCA3E0FDA3E0FEA3E0FFA3E0C0E0A3E0A9
:10122000C0E0A3E0F5D0A3E0F520A3E0A3F5F01023
:10123000AF0885831B85821A800885831B85821AE7
:10124000D2AFD082D083D0E0F8D0E03274048006F0
:10125000740280027401C0E0F404121016D0E0128F
:101260000EEC227404800474028000CCC0E0EDC057
:10127000E0E51AC39CCCAD1B50011D10AF068C1AC3
:101280008D1B80068C1A8D1BD2AF120EF9D0E0FD9B
:10129000D0E0FC22D083D082E9C0E0E493A3C386EF
:1012A000F0C5F095F0F908E493A386F0C5F095F049
:1012B000700BE493A3C3994005E9048002A3E4758D
:1012C000F002A42582F582E5F03583F583D0E0F9BC
:1012D000E493A3C0E0E493C0E022D083D082ECC0CA
:1012E000E0EDC0E0E493A3FCE493A3FDED4C600DBE
:1012F000121326EC24FFFCED34FFFD80EFE493A3F2
:10130000FCE493A3FDED4C600D121365EC24FFFC8F
:10131000ED34FFFD80EFD0E0FDD0E0FCE493A3C00E
:10132000E0E493C0E022C0E0C3E493960874019324
:101330009618400FE493667008087401936618705D
:10134000007019A3A3C3E49396087401939618A39D
:10135000A3400DD0E0D0E0D0E0021316A3A3A3A3D6
:10136000A3A3D0E022C0E0C0F088F0E49366700848
:101370000874019366187000A8F0A3A3700BD0F056
:10138000D0E0D0E0D0E0021316A3A3D0F0D0E0224A
:1013900074F51210A9EAFEEBFFEE2434F8EF3400E6
:1013A000F9880A890BEE2435F582EF3400F583E0E5
:1013B000F8EE2437F582EF3400F583E0F50CEC8588
:1013C0000CF0A4FCAAF0850CF0EDA42AFDE82CF8A2
:1013D000E43DF97A257B00120F5BEA850A82850BD2
:1013E00083F05407F87401B800028004C333D8FCBA
:1013F000C0E0E0131313541FF8EE28F8EF3400F99F
:10140000E8245DF582E93400F583D0E0F8E0586027
:1014100008EE2434F582EF801EEE2436F582EF3498
:1014200000F583E0F5F0EA84A8F0EE28F8EF340048
:10143000F9E82438F582E93400F583E0F97F040205
:10144000115574F51210A9EAFEEBFFEE2434F58273
:10145000EF3400F583E0C0E0EE2435F582EF340090
:10146000F583D0E0F08E828F83A3A3A3A3A3A3A3CD
:10147000C082C0838E828F83A3A3A3A3A3E0F8A31B
:10148000E0F9D083D082E0C398F50AA3E099F50B88
:10149000EE2480F582EF3400F583E064017069EE9C
:1014A0002481F582EF3400F583E0F8A3E0F98E8221
:1014B0008F83A3A3A3A3A3A3A3E0FCA3E0FD8E8239
:1014C0008F83A3A3A3A3A3E0FAA3E0FBC3EA9CEB4F
:1014D0009D5027C3EC98ED99402EC3EA98EB9950A4
:1014E000277CFC7D04EEFAEFFB122303EE2480F54B
:1014F00082EF3400F583E4F0800EC3EA98EB994064
:10150000E0C3EC98ED9950D9EE2434F8EF3400F9AB
:10151000E8FCE9FDEE2435F582EF3400F583E0F8D0
:10152000EE2437F582EF3400F583E0F50CE50A850B
:101530000CF0A4F50AAAF0850CF0E50BA42AF50B33
:10154000E8250AF8E4350BF97A257B00120F5BEAEF
:101550008C828D83F05407F87401B800028004C3B4
:1015600033D8FCC0E0E0131313541FF8EE28F8EF53
:101570003400F9E8245DF582E93400F583D0E0F821
:10158000E0586008EE2434F582EF801EEE2436F534
:1015900082EF3400F583E0F5F0EA84A8F0EE28F855
:1015A000EF3400F9E82438F582E93400F583E0F9F6
:1015B000121B5802143DC082C083851A82851B838A
:1015C000E0F8A3E0F9C3EA9CEB9D5012C3EC98ED60
:1015D000994019C3EA98EB99501279018010C3EA37
:1015E00098EB9940F5C3EC98ED9950EE7900D083D3
:1015F000D08222EAC39CFAEB9DFB22FF85218785DE
:1016000022C622C0E0C0D0E8C0E0E9C0E0EAC0E005
:10161000EBC0E0ECC0E0EDC0E0C00AC00BC00CC005
:101620000DC082C083C0F0759B00906182E0A2E68D
:1016300040030216E1E591A2E640030216E175912E
:10164000BF9003C1E06405700812242F12243B8070
:101650000312243575210012248FE99003C2F0791A
:10166000001224831222797A017B009003C0E0F9F2
:10167000122759907803E06442600302172A90050C
:101680005EE014F0600302172AC2AF12168E0078D3
:101690002AD0E0F618D0E0F6E59F5407F9700590DF
:1016A00084A980039084A5780A120EB6E9C4C0E02C
:1016B0007829E6550AF50A08E6550BF50B740B7800
:1016C0000A120FC4D0E0250AF8906270E0A2E74049
:1016D000F8E8C333906272F0906270E0D2E0F0807C
:1016E00049E0A2E55024E591A2E5501E7591DF90F6
:1016F00003C1E0640D70139003E3E004F06428700C
:1017000002E4F07A00E0F9122501906181E0A2E3A1
:101710005009E5E9A2E3500375E9F7A3E0A2E75019
:1017200009E591A2E7500375917FD0F0D083D08274
:10173000D00DD00CD00BD00AD0E0FDD0E0FCD0E032
:10174000FBD0E0FAD0E0F9D0E0F8D0D0D0E032C061
:10175000E0C0D0C082C083906183E0A2E05009E580
:10176000BFA2E0500375BFFEE0A2E15009E5BFA2B1
:10177000E1500375BFFDE0A2E25009E5BFA2E250CF
:101780000375BFFBE0A2E35009E5BFA2E350037578
:10179000BFF7E0A2E45009E5BFA2E4500375BFEF34
:1017A000E0A2E55009E5BFA2E5500375BFDFE0A266
:1017B000E65009E5BFA2E6500375BFBFD083D082D3
:1017C0008088C0E0C0D0E8C0E0E9C0E0EAC0E0EB5B
:1017D000C0E0ECC0E0EDC0E0C0F0E5A7A2E6500F2D
:1017E000E5A1A2E6500953A7BF75A1BF121827E5CE
:1017F000A7A2E5500CE5A1A2E5500653A7DF75A10D
:10180000DFE5A7A2E15009E5A1A2E1500375A1FD22
:10181000E5A7A2E2500CE5A1A2E2500653A7FB7592
:10182000A1FBD0F002173874F81210A975210190AD
:1018300003C1E0640670151223CF8A828B83A3A3B1
:10184000A3A3A3A3E0FAA3E0FB12241DA2AFE433F9
:10185000FED2AF9003C7E0640170187A207B00903D
:1018600003C0E0F91227DD7A207B009003C0E0F985
:1018700012275F906182E0D2E6F090055DE0602182
:1018800085C62280169003C6E064017008E5C65440
:10189000F84405F5C653BEFC1215FC7401652160C1
:1018A000E4EEA2E092AF7F01021155FF8E238F2458
:1018B000858228858327851A82851B83E0CEA3E055
:1018C000CF852882852783EBC9EAC8EDCBECCA75A2
:1018D000F010C3E833C8E933C9EA33CAEB33CBC3EA
:1018E000EA9EF526EB9FF525B35004AB25AA26EC1E
:1018F00033CCED33CDD5F0DAAE23AF242274F11220
:1019000010A98A0A8B0B8C0C8D0D740F1210317874
:101910000E120EB690848D780A120E9090848D78F7
:101920000E120E90780A790E120CC85015780A79AA
:101930000E120E68908465780A120CE84015790141
:101940008013780E790A120E68908465780E120C56
:10195000E840EB79007F0802115574ED1210A98A56
:101960000A8B0B8C0C8D0D7413121031780E120E25
:10197000B690848D780A120E9090848D780E120E97
:1019800090780E790A120CC84011780A790E120E5E
:1019900068AA0AAB0BAC0CAD0D8022751200751352
:1019A000007514007515017812790E120E68781200
:1019B000790A120E2FAA12AB13AC14AD157F0C02CC
:1019C000115590848D780A120EB68A828B83780A1C
:1019D000120EA37F0402115574F51210A98C828D8A
:1019E00083780A120EB68A828B83780A120E7CEAFA
:1019F0002404F8EB3400F98C828D83A3A3A3A3E025
:101A0000FCA3E0FD88828983C3E09CF0A3E09DF005
:101A100088828983C3E09420A3E0944E402290847E
:101A200079780A120EB68A828B83780A120E558A4A
:101A3000828B83A3A3A3A3E02420F0A3E0344EF081
:101A4000808074F51210A9E9FE900513E0FAA3E076
:101A5000FBEEC333F8E433F9743328F58274833929
:101A6000F583E02AF50AA3E03BF50B780A12125041
:101A70009084AD120ED41218AC7402120FFC8A0AB4
:101A80008B0B8C0C8D0D7410780A120DF7AA0AAB13
:101A90000B7F0402115574F11210A98A0E8B0F8C62
:101AA000108D11740F121031E0FAA3E0FB741112C3
:101AB0001031E0F50AA3E0F50B7413121031E0FECB
:101AC000A3E0FF780A121250EA2401F50AEB340071
:101AD000F50BE4F50CF50D780E790A120D079084DC
:101AE0005D780A120EB6780E790A120D07AA0EABAF
:101AF0000FAC10AD111218AC7402120FFC8B0BEA74
:101B0000450B60047A0180027A00EC2AFCED340077
:101B1000FDECF8EDF97A717B02120F5B880A890BF4
:101B2000E4F50CF50D8E828F83780A120EC5ECF861
:101B3000EDF97A717B02120F5B8A0A8B0B740578C0
:101B40000A120FD38E828F83A3A3A3A3E50AF0A367
:101B5000E50BF07F08021155C082C083E990600058
:101B6000F0D083D08222C0E074F2121195A2AFE4CB
:101B700033FED2AFE589A2E1500312293375890003
:101B8000C2C5EEA2E092AF7F010211F4C0E074F290
:101B9000121195A2AFE433FED2AFE58BA2E0500361
:101BA000122933758B00C2E880D8C0E0C0D0E8C0ED
:101BB000E0E9C0E0E5A8D2AFC2C7A2E7A2E792AFD2
:101BC000D0E0F9D0E0F8D0D0D0E032120C9E1393E0
:101BD00007120C9E2A9307120C9E599307120C9E13
:101BE000929307120C9EBA9307120C9EE893071269
:101BF0000C9EFF9307120C9E169407120C9E2C94B9
:101C000007120C9E539407120C9E669407120C9EAA
:101C10007C9407120C9E8F9407120C9EB4940712AA
:101C20000C9E11A406120C9E10A506120C9E45A532
:101C300006120C9E66A506120C9E76A506120C9E38
:101C400097A506120C9EA3A606120C9E70A706125C
:101C50000C9EE3A706120C9E69A806120C9EACA867
:101C600006120C9EE3A806120C9E69A906120C9E91
:101C70003BAA06120C9E99AA06120C9EB1AA061245
:101C80000C9E2BAB06120C9E2EAB06120C9E31AB9B
:101C900006120C9ED8AB06120C9EF0AB06120C9EE0
:101CA00020AC06120C9E40AC06120C9E2EAD061205
:101CB0000C9EE4AD06120C9E35E406120C9E5DE40B
:101CC00006120C9E8BE406120C9EC2E406120C9EB9
:101CD0002AE506120C9E73E506120C9EBEE506125E
:101CE0000C9EFCE506120C9E39E606120C9E67E679
:101CF00006120C9E0EE706120C9E18E706120C9EAA
:101D000025E706120C9E58E706120C9E1AE80612EA
:101D10000C9E26E806120C9E3EE806120C9E48E831
:101D200006120C9E27FF04120C9E35FF04120C9E17
:101D30004DFF04120C9E65FF04120C9E2AA805128A
:101D40000C9EC8A805120C9E40A905120C9E55AA0F
:101D500005120C9E8FAA05120C9E38AB05120C9E24
:101D60000DAC05120C9E71AD05120C9EC8AD05128E
:101D70000C9E4FAE05120C9E36AF05120C9E83AF23
:101D800005120C9E11B005120C9E35B005120C9E6A
:101D90000AB205120C9E4BB205120C9E6DB20512D2
:101DA0000C9EEEB205120C9ED8B305120C9E9EB48A
:101DB00005120C9E58C706120C9E2AC806120C9ECD
:101DC000D3C806120C9E16C906120C9EA3C9061291
:101DD0000C9E2FCA06120C9E10CB06120C9E3FCBF7
:101DE00006120C9E3BCC06120C9E83CC06120C9E57
:101DF00085CD06120C9EC9CD06120C9EEFCD0612A3
:101E00000C9E969C07120C9E008007120C9E16805A
:101E100007120C9E3C8007120C9E648107120C9ED8
:101E20006E8107120C9EC78207120C9EC783071291
:101E30000C9E65DA06120C9E9ADB06120C9ECDDB18
:101E400006120C9E17DC06120C9ED5DD06120C9EA7
:101E5000CD9805120C9E309905120C9E759A0512AC
:101E60000C9E859A05120C9EA89A05120C9EF39A58
:101E700005120C9E989B05120C9E8E9C05120C9EC2
:101E8000589D05120C9ED09E05120C9E129F0512A5
:101E90000C9EB09F05120C9EFD9F05120C9E23A068
:101EA00005120C9E11A205120C9E16A205120C9E84
:101EB000F7A305120C9E4BA405120C9EADA40512AF
:101EC0000C9ED5A405120C9E79A505120C9E3BA66E
:101ED00005120C9E6CA605120C9E6FA605120C9E98
:101EE000B7A605120C9EF9A605120C9E60A7051256
:101EF0000C9EBF8C07120C9ED28C07120C9EEB8C92
:101F000007120C9E368D07120C9E118E07120C9E26
:101F1000A08E07120C9EEB8E07120C9E00B00412CE
:101F20000C9E0CB004120C9E45B004120C9E8AB09C
:101F300004120C9E41B104120C9EC7B104120C9EF7
:101F40002CB204120C9E58B204120C9E91B20412D0
:101F50000C9EA5B404120C9E81B604120C9E6CB8A3
:101F600004120C9EA3B904120C9E03BC04120C9E16
:101F7000EFBC04120C9E35BE04120C9E42BF04122C
:101F80000C9E5FBF04120C9E97BF04120C9EB1BF43
:101F900004120C9E19C004120C9EB3C404120C9EB1
:101FA00054C504120C9EA5C504120C9ECCC5041287
:101FB0000C9E1AC604120C9E38C604120C9E8CC6C7
:101FC00004120C9E65C704120C9EECC804120C9EF1
:101FD00074C904120C9E8BDF06120C9E95DF06124C
:101FE0000C9E60E006120C9E7BE006120C9EA1E0A7
:101FF00006120C9EE5E006120C9E1DE106120C9ED8
:1020000046E106120C9EBFE106120C9ED4E10612B8
:102010000C9EE9E106120C9E20E206120C9E34E2B0
:1020200006120C9E65E206120C9E9FE206120C9EA2
:10203000CBE206120C9E21E306120C9E75E30612FB
:102040000C9EBEE306120C9EE8E306120C9E0DE405
:1020500006120C9ED4F906120C9E9EFA06120C9ED5
:1020600081FB06120C9EF7FB06120C9E39FC061231
:102070000C9E66FD06120C9E008006120C9E2980A6
:1020800006120C9E428006120C9E878106120C9E40
:10209000658206120C9E848206120C9E1183061223
:1020A0000C9E548306120C9EA18406120C9E408541
:1020B00006120C9EBF8706120C9E568806120C9EB6
:1020C0002A8906120C9E0C8A06120C9E788B061228
:1020D0000C9E0B8C06120C9E4B9907120C9EB49909
:1020E00007120C9E089A07120C9E2F9A07120C9E3C
:1020F000DDE806120C9E4AE906120C9E95E90612CE
:102100000C9E8AEA06120C9E86EB06120C9E70EC60
:1021100006120C9E4FAE06120C9E91AE06120C9E3D
:102120006BAF06120C9E44B006120C9E3FB1061215
:102130000C9E1EB206120C9E8AB206120C9E51B361
:1021400006120C9EBCB306120C9E23B406120C9E03
:102150004EB406120C9EBFB406120C9E52B5061267
:102160000C9EBBB506120C9ED0B506120C9E18B67E
:1021700006120C9E31B606120C9E96B606120C9EE6
:1021800099B606120C9EE78607120C9E0F8707125F
:102190000C9E4D8707120C9E0B8807120C9E7688AA
:1021A00007120C9E928807120C9EBA8807120C9E8A
:1021B000EA8807120C9EF98807120C9E7389071291
:1021C0000C9E998907120C9E51C505120C9E2EC7B4
:1021D00005120C9E29C905120C9EFCC905120C9E05
:1021E00047CA05120C9E92CA05120C9EA4CA05127B
:1021F0000C9EE4CA05120C9E19CB05120C9E65CBF1
:1022000005120C9E94CB05120C9EB7CB05120C9EAA
:1022100004CC05120C9E8DCC05120C9E9ACE051294
:102220000C9E85D005120C9EC8D005120C9E2DD296
:1022300005120C9E6ED205120C9EE1D205120C9E68
:102240002DD305120C9E58D305120C9E828C0612BB
:102250000C9EAD8C06120C9E949306120C9EB895A3
:1022600006120C9E739706120C9ED09806120C9EB6
:10227000DBC904120C9E72CA04120C9EB8CA041266
:102280000C9EF7CB04120C9E8ECD04120C9E08CE31
:1022900004120C9E23CE04120C9E98CE04120C9EA7
:1022A000C7CF04120C9E22D104120C9E24D2041219
:1022B0000C9E81D304120C9E9AD304120C9EF7D369
:1022C00004120C9ED9D404120C9E0CD504120C9E40
:1022D0007CD504120C9EF6D504120C9E45D6041231
:1022E0000C9E11D704120C9E16D804120C9EF5D821
:1022F00004120C9E80D904120C9EEED904120C9E7E
:1023000062DA04120C9E8BDA04120C9E4ADB041271
:102310000C9EC4DC04120C9EE1DC04120C9E00DD59
:1023200004120C9E91DD04120C9EB6DD04120C9E6C
:10233000DEDD04120C9E59DE04120C9EB3DE041284
:102340000C9E07E004120C9EC4E004120C9E97E160
:1023500004120C9E82D305120C9ED2D305120C9E41
:10236000DED305120C9EBBD405120C9EEBD40512D5
:102370000C9E23D505120C9EA2D505120C9EDAD513
:1023800005120C9E2CD605120C9E69D605120C9EC9
:102390008ED805120C9EBADA05120C9EB5DC051219
:1023A0000C9E90DE05120C9EFBFF05120C9E1C85F8
:1023B00005120C9E668505120C9E458B05120C9E1F
:1023C000C68C05120C9E259305120C9E20940512B6
:1023D0000C9E5D9405120C9E809405120C9EC29476
:1023E00005120C9ECB9405120C9ED59405120C9EE2
:1023F000C19505120C9EB59605120C9EC5E10412FE
:102400000C9E3DEC04120C9E43EC04120C9E4FF308
:1024100004120C9ED18307120C9ECF8407120C9ECF
:10242000258507120C9E638507120C9EC085071236
:102430000C9E3D8607120C9E468607120C9E528605
:1024400007120C9E658607120C9EA18607120C9E31
:10245000B78607120C9E32ED06120C9E3FED061257
:102460000C9E59ED06120C9E98ED06120C9ED6EDB0
:1024700006120C9E3BEE06120C9E50EE06120C9EAF
:102480005BEE06120C9E68EE06120C9E7FEE0612A4
:102490000C9E8DEE06120C9E98EE06120C9EA4EE7B
:1024A00006120C9EB3EE06120C9EBEEE06120C9E99
:1024B000E1EE06120C9E8AEF06120C9E9AEF0612AF
:1024C0000C9EB4EF06120C9ED1EF06120C9EEDEF9F
:1024D00006120C9E12F006120C9E1CF006120C9EA8
:1024E00030F006120C9E4FF006120C9EB0F0061251
:1024F0000C9EB6F006120C9EBCF006120C9EC2F0AA
:1025000006120C9ECEF006120C9E01F106120C9ED5
:1025100056E105120C9ED8E105120C9E81E20512CF
:102520000C9EC9E305120C9ED7E505120C9EBDE674
:1025300005120C9EF2E605120C9E14E705120C9E85
:10254000BDE705120C9E8DE905120C9EB6E9051239
:102550000C9E2EEA05120C9E60EA05120C9E6DEA96
:1025600005120C9EB8EA05120C9EDCEA05120C9EC0
:102570002DED05120C9E37EE05120C9E93EE051202
:102580000C9ED3B605120C9EE4B705120C9EC8B87B
:1025900005120C9ED2B805120C9EF4B805120C9EC2
:1025A00000B905120C9EA4BA05120C9ED1BA0512F0
:1025B0000C9EE7BB05120C9E3CBC05120C9E8BBD0D
:1025C00005120C9E60BE05120C9EBCBE05120C9E30
:1025D00027BF05120C9E5CBF05120C9E9FBF051203
:1025E0000C9E69C205120C9E81C205120C9E12C37C
:1025F00005120C9E20C305120C9E6DC305120C9E85
:102600007BC305120C9EE7C305120C9E62C4051223
:102610000C9EB9C405120C9EF39806120C9E1599D7
:1026200006120C9E269B06120C9EE59D06120C9E21
:102630000F9F06120C9ECD9F06120C9EB9A006128B
:102640000C9E5A9107120C9E7F9107120C9EF591D9
:1026500007120C9E0AF804120C9E13F804120C9E2A
:102660001CF804120C9EF4F804120C9EA5FA041235
:102670000C9ED5FA04120C9E00FB04120C9E30FB3B
:1026800004120C9E5BFB04120C9E8FFB04120C9E2A
:10269000BBFB04120C9EFEFB04120C9E29FC0412D0
:1026A0000C9E70FC04120C9EC5FC04120C9E07FDCF
:1026B00004120C9E61FD04120C9E8CFD04120C9EF3
:1026C000DBFD04120C9E0BFE04120C9E36FE04125F
:1026D0000C9E64FE04120C9E87FE04120C9E1F9D2D
:1026E00007120C9E4B9D07120C9E789D07120C9EA4
:1026F000829D07120C9E929D07120C9EBDB606127B
:102700000C9EC7B606120C9E05B706120C9E4EB75D
:1027100006120C9E88B706120C9EE2B706120C9E9B
:1027200003B806120C9EDBBA06120C9EE4BA06121F
:102730000C9E31BB06120C9E5ABB06120C9E64BB4B
:1027400006120C9ED0BB06120C9E62BC06120C9E9A
:10275000ACBC06120C9EE2BC06120C9E6EBD0612AC
:102760000C9EAFBD06120C9EE6BD06120C9EF8BD77
:1027700006120C9E17BE06120C9E20BE06120C9E60
:10278000E8BE06120C9E609A07120C9EC0FD06124F
:102790000C9EF6FD06120C9E2CFE06120C9E77FF78
:1027A00006120C9E9C9D07120C9EB29D07120C9E59
:1027B000BC9D07120C9E069E07120C9EACF50612DD
:1027C0000C9EC1F506120C9E74F606120C9EB4F611
:1027D00006120C9ECDF606120C9E08F706120C9EF1
:1027E00055F706120C9E87F706120C9EC9F70612C3
:1027F0000C9ED49707120C9EFD9707120C9E2C98E6
:1028000007120C9EC49807120C9E069907120C9E84
:10281000E18907120C9E068A07120C9E308A071265
:102820000C9E659E07120C9EE82A00120C9EC52C79
:1028300000120C9E6B2E00120C9E1F2F00120C9E7D
:10284000A92F00120C9E2A3000120C9E5330001249
:102850000C9E113400120C9E973400120C9EBE3553
:1028600000120C9EF83500120C9E393600120C9E98
:10287000813700120C9EDE3700120C9E27380012A2
:102880000C9E923800120C9E033900120C9E3539B2
:1028900000120C9E4D3900120C9E793A00120C9ECB
:1028A000893A00120C9E333C00120C9E4A3C0012E6
:1028B0000C9E7C3C00120C9E303E00120C9EBD3ED5
:1028C00000120C9E579B07120C9E689B07120C9ED1
:1028D000B1FF06120C9EF0FF06120C9E809F07129D
:1028E0000C9E8B9F07120C9E909F07120C9E9C9F24
:1028F00007120C9E089C07120C9E189C07120C9E37
:102900002D9C07120C9E939C07120C9EFC3E0012FD
:102910000C9E813F00120C9EE73F00120C9E5A96BF
:1029200007120C9E839607120C9EEE9607120C9EC1
:102930003F9707120C9E9A9707120C9E7EF1061283
:102940000C9EA3F106120C9EC0F106120C9EDDF146
:1029500006120C9E02F206120C9E34F206120C9E17
:102960005FF206120C9E26F306120C9EC0F30612AE
:102970000C9EF1F306120C9E30F506120C9EAD9FD4
:1029800007120C9E64CE06120C9EA6CE06120C9E5A
:10299000C1CE06120C9E92CF06120C9E80D006125B
:1029A0000C9EA0D206120C9E12D306120C9EFAD3D5
:1029B00006120C9ED3D406120C9EC69407120C9ECF
:1029C000189507120C9E8B9507120C9EF495071212
:1029D0000C9E158F07120C9E3F8F07120C9E0D90B8
:1029E00007120C9EE89007120C9E16BF06120C9E52
:1029F000DDBF06120C9E14C006120C9E3EC00612CD
:102A00000C9E9EC006120C9EF4C006120C9E59C16C
:102A100006120C9EF1C106120C9E00C306120C9EFB
:102A200097C406120C9E24C506120C9E8BC5061276
:102A30000C9EA2C506120C9EBCC606120C9EFAC6BF
:102A400006120C9EE0EE05120C9E2DF205120C9E55
:102A5000A9F305120C9E00F405120C9E1DF405123C
:102A60000C9E9BF405120C9E1EF605120C9E03F79D
:102A700005120C9EB8FA05120C9E8EFB05120C9ED8
:102A800017D506120C9EB1D706120C9E5CD8061202
:102A90000C9E71D906120C9EE4D906120C9E31FCD4
:102AA00005120C9E76FC05120C9E93FC05120C9EE2
:102AB00049FD05120C9E9CFD05120C9E72FE05122E
:102AC0000C9E8CFF05120C9E0E9F07120C9EC5FFDC
:102AD00005120C9E3A9F07120C9E629F07FFFFFF94
:102AE000FFFFFFFFFFFFFFFF74F412103DE9FF7EC1
:102AF000008A0A8B0B780A12129400040D8E2C1B8C
:102B00002B382B512B682B852B9C2BBD2BD42BE7E3
:102B10002B102C2A2C3A2C502C6A2C74016F600339
:102B2000022C8A8C828D83E0F8C394034003022C2C
:102B30008AE8900AEC022C6774026F6003022C8A08
:102B40008C828D831233ED900AEDE8F0A3E9022C1C
:102B50006774016F6003022C8A122CB14003022CAF
:102B60008AE8900780022C6774016F6003022C8A48
:102B70008C828D83E0F8C394054003022C8AE89090
:102B80000781022C6774016F6003022C8A122CB13A
:102B90004003022C8AE8900782022C6774106F6051
:102BA00003022C8A750A108E0B780A1212507A834F
:102BB0007B071226FF7402120FFC022CAC74016F0B
:102BC0006003022C8A122CB14003022C8AE8900781
:102BD00093022C6774016F6003022C8A8C828D83B0
:102BE000E0900AF0022C6774046F6003022C8A8C58
:102BF000828D83780A120EB69084AD780A120CE8A2
:102C00005003022C8A900795780A120EC5022CAC4C
:102C1000EF7077121E17E9700A12288B7950122A6A
:102C20003B80629008287401803D74016F705B12D4
:102C30002CB15056E8900794802D74016F704B8C26
:102C4000828D83E0F8C3940A5040E8900AEF801721
:102C500074016F70358C828D83E0F874F928C39409
:102C60000A5027E8900AF1F0804274016F701B90BF
:102C70000827E0F88C828D83E0900827F0E8702C1C
:102C8000E06401702712287F80227E18801EC3EA2C
:102C90009426EB9400501374026F700E8C828D8317
:102CA0001233E7121CB5E9FE80020E0EEEF9022C7B
:102CB000C08C828D83E0F8C3940222740E120FFC44
:102CC0007F0402110F74F012103D74CC120FE68CC9
:102CD0000C8D0D7420121031AC82AD837583847518
:102CE000822E7406120EF97420121031AC82AD835C
:102CF000122831E9F50A7444121031E0FEE9C39458
:102D00000A4003022E3375F006E9A4F50B7426126F
:102D10001031AC82AD837A0E7420250BF9122A355E
:102D2000E970097432121031E0FF80027F00900ACE
:102D3000ECE06402700474018001E4F50F780F1276
:102D40001254EEFDEFFCA90AAA0CAB0D1228B574C3
:102D500001120FFC7C147D007900740C121031AA52
:102D600082AB83122717740C121031AC82AD837AB8
:102D7000107424250BF9122A35E9703C7C1079FF78
:102D8000740C121031AA82AB8312277DE97029746A
:102D90001C121031AC82AD837A047425250BF91214
:102DA0002A35740C121031AC82AD83EFA2E0E4330B
:102DB000F9AA0CAB0D121D3F851A82851B83AC82CC
:102DC000AD837A0C7470250AF9122A35E97053859F
:102DD0001A82851B83AA82AB83122861750A00E5DB
:102DE0000A75F003A4F8A9F0851A82851B83E58291
:102DF00028F8E5831235F1123779601D88828983BE
:102E0000A3A3E0F5107511007810121250AA0CABB4
:102E10000D121F9D7402120FFC050AE50AC39404EB
:102E200040BDEFA2E1500C90077FE0F9AA0CAB0D7A
:102E3000121FA374046E7027900AECE06402701FE6
:102E40007A00900793E060010A900780E0600478C0
:102E50000480027800E84AF9AA0CAB0D121DFF7934
:102E6000007434120FFC7F0802110F74F012103D31
:102E7000EAFEEBFF8C0A8D0B750C0AE9600C1460FE
:102E800009146037146079022F1A122873E9F50CBF
:102E9000C3940A4003022F1AE50A450B607C7510A3
:102EA000067511007810121250EEFCEFFDAA0AAB65
:102EB0000B1226FF7402120FFC805F750D00751057
:102EC000067511007810121250EEFCEFFDE50D753D
:102ED000F00EA4F8A9F074A128FA740739FB1227A0
:102EE000117402120FFCE9600C850D0CE50CC39403
:102EF0000A50278016050DE50DC3940A501C80BEAC
:102F0000122879E9F50CC3940A500FE50A450B60C5
:102F100009AA0AAB0BA90C12286DA90C022E667423
:102F2000F412103D890A750B1574FF6A700374FF63
:102F30006B70277E00AC0A7A027B00EEF912284FF4
:102F4000E96003750B000EEEC3940A40E8E50A60E1
:102F5000537AA37B281221B9804A12219B8A0C8BB9
:102F60000DAE0CAF0DEE4F60387C007D00EE2405F9
:102F7000FAEF3400FB8E828F83A3A3A3A3E0F912A0
:102F80002831E9C3940A500CAC0A7A027B0012285B
:102F90004F750B00E50A600CEEFAEFFB1228A380D8
:102FA00003750B14A90B022CC074F212103DECFE39
:102FB000EDFF750A15740E1210311233DA74FF6AC0
:102FC000700374FF6B7021750B00AC0CAD0DEEFA45
:102FD000EFFBA90B122855E96003750A00050BE504
:102FE0000BC3940A503F80E212219B8A828B83E5B7
:102FF000824583602D7C007D00E5822405FAE5830F
:103000003400FBA3A3A3A3E0F9122831E9C3940A77
:103010005013AC0CAD0DEEFAEFFB122855750A00FB
:103020008003750A14A90A023E1AC082C083900761
:1030300099EAF0A3EBF090077FE0FC7D007A257B16
:1030400000121CB590077FE0F9121F19D083D082BF
:10305000020C9B74EA12103D74EC120FE6EAFEEBD0
:10306000FFEE240CF516EF3400F517EE240AF50EEA
:10307000EF3400F50FEE2405F510EF3400F511EEF6
:103080002409F50CEF3400F50DEE2403F50AEF34B6
:1030900000F50B8E828F83A3A3E024FA7003023322
:1030A000B224FD70030232CD147003023138146073
:1030B0001024FD700302329D1470030233020233A8
:1030C000D01233F3604AE0F58388821233ED880E24
:1030D000890FE8450F6039851682851783E0F51062
:1030E0007810121254EE240BF582EF3400F583E0D1
:1030F000F9850C82850D831233E70A0A0AAB0B852A
:103100000E82850F8312103B7401120FFC0233D024
:10311000850C82850D83121267900795120ED412CA
:103120001D517402120FFCE970030233D07901853E
:103130000C82850D8302337E8E828F83A385821459
:10314000858315E06003023280851082851183E05B
:10315000A2E040030232807C0E7D007900851A8255
:10316000851B83AA82AB83122717EE2408F512EF82
:103170003400F513851282F583123C2DEA4B601062
:10318000750C06750D00780C121250EA2410801B85
:10319000123C2712219BEA4B70030233D0750C06B8
:1031A000750D00780C121250EA2405FCEB3400FD7A
:1031B0007402121031AA82AB831226FF7402120F1E
:1031C000FC851082851183E0A2E25004D2F08002D7
:1031D000C2F0A2F0E433F8740C121031E048F0852C
:1031E0000E82850F831233DAE50C450D6013E50C72
:1031F0002410F582E50D3400F583780E120EB680AA
:103200000C750EFF750FFF7510FF7511FFE50C456E
:103210000D7006750C00750D00851282851383E014
:10322000F512A3E0F513E51245137006751200754B
:103230001300780E12124C780C12125078121212DF
:10324000508516828517831212678E828F83A31290
:1032500033E2740A121031AA82AB83122867740A0F
:10326000120FFC850A82850B831233ED900829E842
:10327000F0A3E9F07A017B0090077FE0F91227596B
:103280001233F370030233D01233FE70030233D0D3
:10329000851482851583E0FC79010233A61233F38D
:1032A00070030233D0E0F5838882A3A31233ED8943
:1032B0000DE8450D70030233D08E828F83A3E0FCAE
:1032C0007902123C278882850D830233AD7C007D14
:1032D00000EE2404FAEF3400FB850A82850B83E0BC
:1032E000F9122831E9F8C3940A40030233D0AC0E36
:1032F000AD0F7A0475F006E8A42425F9122A2F02EE
:1033000033D0123C27900794E06007900AEFE0F971
:10331000806F900AECE070047905806512219B8A29
:103320000E8B0FA80EA90FE82404F50EE93400F562
:103330000F8E828F83A3A3A3A3A3A3A3E0A2E05035
:1033400045E84970030233D0850E82850F83E0FE85
:103350006034850C82850D83E054107029740E1240
:103360001031AC82AD83E82405FAE93400FBEEF9B4
:10337000122831E970107903850A82850B83123C8B
:103380002D121D4B804AAC10AD11850E82850F8326
:10339000E0F9123C271228AF1233F360331233FEE8
:1033A000602E7C007900123C278E828F8312103BA6
:1033B000801E121E17E97018900828E0640170083A
:1033C00012288B900828E4F07950122A3B12287FAB
:1033D0007414120FFC7F0E02110FE0F50CA3E0F540
:1033E0000D22A3A3A3A3A3E0FCA3E0FD22E0F8A386
:1033F000E0F922900799E0F8A3E0F9E84922E0F526
:10340000838882A3A3E0F8A3E0F9E8FEE9FFEE4F8A
:103410002274F412103D74F2120FE6EAFE8C0D7560
:10342000F006E9A42420F50A851A82851B83AC8264
:10343000AD837A0EF9122A35E970577C0679FF853B
:103440001A82851B83AA82AB8312277DE97043749D
:103450000C1210311233EDE8F50BE50D6005EE426C
:103460000B8004EEF4520B850B82AA82E86A70018D
:10347000E9601B740C121031EAF0A3E4F0851A82A3
:10348000851B83AC82AD837A0EA90A122A2F79019B
:1034900080027900022CBB74F212103D74E6120F08
:1034A000E6890C8A0A8B0BECFEEDFF740C121031CE
:1034B000AC82AD837A0E75F006E9A42420F9122AB5
:1034C00035E960030235B77C0679FF740C121031C0
:1034D000AA82AB8312277DE960030235B774702599
:1034E0000CF50D851A82851B83AC82AD837A0CF9AD
:1034F000122A35E960030235B3851A82851B83AA37
:1035000082AB83122861E50A450B702C7C0C790094
:10351000851A82851B83AA82AB8312277DE960030B
:103520000235B37C0C7D007900851A82851B83AA45
:1035300082AB83122717805D851A82851B83AC823C
:10354000AD83AA0AAB0B12285B8A0E8B0FA80EA9BB
:103550000FE8497028EE4F605E851A82851B83ACA8
:1035600082AD837A007B0012285BEAF8EBF9EA4B24
:10357000604588828983E50AF0A3E50BF012362DB9
:10358000FAEE6A7001EF602BEEF04F7008888289C6
:1035900083E4F0A3F0851A82851B83AA82AB831291
:1035A0002861851A82851B83AC82AD837A0CA90DB4
:1035B000122A2F790180027900741A023E1774F7DB
:1035C00012103D7F00EF75F003A4F8A9F0EC28F885
:1035D000ED1235F1E06A7003A3E06B7006E8FAE9DA
:1035E000FB800B0FEFC3940440DB7A007B000239B1
:1035F0003039F9888289832274F712103D7E00EEFB
:1036000075F003A4F8A9F0EA28F8EB1235F1E0F41C
:10361000FCA3E0F4FD88828983ECF0A3EDF0123680
:103620002DF4F00EEEC3940440D5023930E82402A4
:10363000F582E93400F583E02274F412103D74F44D
:10364000120FE6EAFEEBFF8C0A8D0BEE4F70057948
:103650000A023763122873E9F50CC3940A402475F3
:103660000D007C0679FFE50D75F00EA4FAABF07441
:103670009B2AFA74073BFB12277DE9700302376827
:10368000850D0CE50CC3940A400302376175F00602
:10369000E50CA4F50DEEFCEFFD7A0E7420250DF976
:1036A000122A2FE50A450B600EAC0AAD0B7A1B748B
:1036B00021250DF9122A2F74181210311237796052
:1036C0000A7A1B7422250DF9122A2F741A1210314E
:1036D000123779600A7A107423250DF9122A2F7493
:1036E0001C121031123779601D7A107424250DF9DF
:1036F000122A2F741E121031AC82AD837A04742505
:10370000250DF9122A2F7C0C7D0079FF851A828500
:103710001B83AA82AB83122717851A82851B83AC71
:1037200082AD837A0C7470250CF9122A2F750A0E5B
:10373000750B00780A121250EEFCEFFDE50C75F0E7
:103740000EA4F8A9F0749B28FA740739FB1226FF1F
:103750007402120FFC900827E060031228BB1228A5
:10376000A9A90C740C022CBD050DE50DC3940A50DB
:1037700003023662750C0A80E8E0FCA3E0FDEC4D24
:103780002274F412103D74F2120FE6EAFEEBFFE928
:10379000C3940A5004EE4F70047902803E851A8269
:1037A000851B83AC82AD837A0E75F006E9A42420D4
:1037B000F9122A35E9F50A7020750C06750D0078A6
:1037C0000C1212507402121031AC82AD83EEFAEF7B
:1037D000FB1226FF7402120FFCA90A022CBB74F420
:1037E00012103DEAFEEBFF750A00750C06750D0020
:1037F000780C121250EEFCEFFDE50A75F00EA4F8FD
:10380000A9F0749B28FA740739FB1227117402126D
:103810000FFCE96004A90A800B050AE50AC3940AB3
:1038200040C8790A022CC074F712103D74F0120FD0
:10383000E6EAFEEBFF750A00851A82851B83AC82DF
:10384000AD837A1075F006E50AA42423F9122A350F
:10385000E9702C7C1079FF851A82851B83AA82ABC4
:103860008312277DE97018EEFCEFFD851A82851B17
:1038700083AA82AB83121D21E97004A90A800B057B
:103880000AE50AC3940A40B0790A7410120FFC02C8
:10389000393074F712103D750A00E50A75F00EA470
:1038A000F8A9F0749B28FE740739FFEEFCEFFD7A4F
:1038B0000E75F006E50AA42420F9122A35E9602CD9
:1038C0007C067D0079FFEEFAEFFB1227177C067D60
:1038D0000079FFEE2406FAEF3400FB122717EE24DE
:1038E0000CF582EF3400F583E4F0A3F0050AE50A55
:1038F000C3940A40A5900827E060031228BB122851
:10390000A9802D74F712103D7E007F007C0679FFA0
:10391000EF75F00EA4FAABF0749B2AFA74073BFB28
:1039200012277DE970010E0FEFC3940A40DEEEF915
:103930007F0102110F74F712103D7E00EEF912287C
:10394000910EEEC3940A5003E960F180E374F31220
:10395000103D74CB120FE6E9FF75F006A4F50A746A
:1039600020250AFE7427121031AC82AD837A0EEE48
:10397000F9122A35E96003023A6A7C0679FF742756
:10398000121031AA82AB8312277DE96003023A6AE2
:103990007C0E7D0079FF7427121031AA82AB83124E
:1039A00027177C1B7D0079FF740C121031AA82ABA3
:1039B000831227177C0C7D0079FF851A82851B8373
:1039C000AA82AB831227177427121031AC82AD8301
:1039D0007A0EEEF9122A2FE9F50B740C121031ACA5
:1039E00082AD837A1B7421250AF9122A2FE9FE740D
:1039F0000C121031AC82AD837A1B7422250AF912A5
:103A00002A2FE9F50C740C121031AC82AD837A10B8
:103A10007423250AF9122A2FE9F50D740C121031BE
:103A2000AC82AD837A107424250AF9122A2FE9F5A5
:103A30000E740C121031AC82AD837A047425250A01
:103A4000F9122A2FE9F50A851A82851B83AC82AD0B
:103A5000837A0C74702FF9122A2FE9F8EE450C4581
:103A60000D450E450A48420B8003750B00A90B74E7
:103A700035120FFC7F0502110F74F712103DE9900B
:103A8000077FF012287F02393074F212103D74FB68
:103A9000120FE68A0A8B0BEB54807003023B2190D5
:103AA000077FE0F91227418A0C8B0DAE0CAF0DEEAB
:103AB0004F60648E828F83E0245060381460062447
:103AC000E1604A804BA3A3A3A3E070448E828F835E
:103AD000A3A3A3A3A3A3A31212678E828F8312337F
:103AE000E28E828F83A3A3123C2D12283D74021212
:103AF0000FFC801CA3A3A3A3E0641E701379008EA7
:103B0000828F83A3A3123C2D1228378003122849E9
:103B1000EEFAEFFB12272FAA0AE50B6480FB023CAA
:103B200022EAA2E04003023C1E9008291233DA7414
:103B30000312103185820E85830F780E1212507594
:103B40000E02750F00780E121250750EDE750F847E
:103B5000780E1212507CFF7DFF7A017B00121E71DD
:103B60007406120FFC023C06E4F50EF50F780E12F7
:103B70001250740412103185820E85830F780E1254
:103B80001250740412103185820E85830F780E1244
:103B9000125074091210311212677902EEFCEFFD17
:103BA000AA0CAB0D121F917408120FFCE970358539
:103BB0001A82851B83E0FA7401121031E0F9EA24BD
:103BC00000F50EE439F50FEA450F6018780E121271
:103BD000508E828F831233E3AA0CAB0D12283D74F2
:103BE00002120FFCE4F50EF50F780E121250740558
:103BF0001210311212677CFF7DFFEEFAEFFB121EEE
:103C00007D7404120FFC8A0E8B0FAE0EAF0FEE4FB9
:103C10006003023B68E50A6401FAAB0B80047A009A
:103C20007B007405023E17850A82850B83E0FAA3A8
:103C3000E0FB22C082C08390077FE0F98A828B83F9
:103C4000A3123C2D121FA302304CC082C08374FF0C
:103C5000120FE6122885E9C39402851A82851B8318
:103C6000400474028002740AF0AC82AD837A017958
:103C700005121E2F7401120FFC02304C74F2121048
:103C80003D74E8120FE6EAFEEBFF890C8C0A8D0BFF
:103C90007C187D007900851A82851B83AA82AB83FC
:103CA000122717851A82851B83EEF0A3EFF0900789
:103CB00081E0C0E07402121031D0E0F0900782E0A1
:103CC000C0E07403121031D0E0F0900AF1E0C0E0DF
:103CD0007417121031D0E0F07415121031E054FE58
:103CE000F8A3E0F9900AF0E0A2E0E433FAE84AF839
:103CF0007415121031123E26A2E15004D2F0800257
:103D0000C2F0E854FDFAA2F0E43333F8EA48F8745C
:103D100015121031123E26A2E35004D2F08002C2E6
:103D2000F0E854F7FAA2F0E433F50E750F007403CF
:103D3000780E120FD3123E1F121031123E26A2E44B
:103D40005004D2F08002C2F0E854EFFAA2F0E4335B
:103D5000F50E7404780E120FD3123E1F121031129A
:103D60003E26A2E55004D2F08002C2F0E854DFFA09
:103D7000A2F0E433F50E7405780E120FD3123E1F35
:103D8000121031123E26A2E25004D2F08002C2F09C
:103D9000E854FBFAA2F0E433F50E7402780E120F29
:103DA000D3123E1F121031E8F0A3E9F0900782E031
:103DB000601D750E10780E1212507C837D077406FC
:103DC000121031AA82AB831226FF7402120FFC90EC
:103DD0000793E06011E50C60097415121031E0449E
:103DE00002F07801800278007414121031E048F07B
:103DF000900780E060047804800278007414121048
:103E000031E048F0AC0AAD0B851A82851B83AA828B
:103E1000AB83121D457418120FFC7F0602110FEAC6
:103E2000450EF8741522E8F0A3E9F0900AF0E022BC
:103E300074F312103D74E5120FE6EAFEEBFF8C0BF3
:103E40008D0C7428121031E0F50E75F006E9A4F817
:103E50007408650C700474228002742128F50D7CAE
:103E60001B7D007900851A82851B83AA82AB831291
:103E70002717851A82851B83AC82AD837A1BA90D17
:103E8000122A35E97032741A121031E024F9C39401
:103E90000A5025E50EF50D780D121254740112101A
:103EA00031AC82AD83E50BA2E0E433F9EEFAEFFB2F
:103EB000121D577401120FFC741B023A7174F71231
:103EC000103D122015750A00E50A75F00EA4F8A938
:103ED000F0749B28FE740739FF7C0679FFEEFAEF39
:103EE000FB12277DE97009EEFAEFFB790012201B27
:103EF000050AE50AC3940A40CF02393074F412105F
:103F00003D890A740F550AF50C750D00740B780C79
:103F1000120FD3EA2400F8EB3480F9E82400E935E5
:103F20000DF9E5C7F50BA2AFE433F50CC2AFE50A16
:103F3000C4540FFAE5C754F84AF5C7740C1210318F
:103F4000E0FAA3E0FB801C88828983E08C828D8369
:103F5000F088828983A3A882A9838C828D83A3ACF5
:103F600082AD83EAFEEBFFEE24FF1AEF34FFFBEE97
:103F70004F70D4850BC7E50CA2E092AF7F0402110D
:103F80000F74F612103DED90082CF0ECA3F0A37422
:103F900062F0A37473F0A3E0541FF0740A1210319E
:103FA000E0F50AA3E0F50BE50A333354FC90083141
:103FB000F07406780A120FC4E50A900830F09008F1
:103FC000327412F0A37442F053D1FE75D601EA9018
:103FD0006271F0EBA3F0906270E0D2E1F0E0A2E752
:103FE00040FB7F0202110FC082C083E9C33390629D
:103FF00072F0906270E0D2E0F0D083D082020C9B2D
:020000040002F8
:10300000C082C083E9900A00F002B28474F7121003
:103010003DE99002DFF07C177D037AFF7BFF121FF2
:10302000A99002E074FFF0A3F0A3E4F0A3F0790507
:10303000121F319002DFE0F9121E597AC77B1F126E
:10304000218902BF9274F412103D8A0A8B0BEB5453
:103050008060309002DFE0F91227418A0C8B0DAEC0
:103060000CAF0DEE4F60138E828F83E064B070035F
:10307000121F49EEFAEFFB12272FAA0AE50B648014
:10308000FB80047A007B0002B25374F212103D748C
:10309000FC120FE6EAFEEBFF741212103112C47933
:1030A000EE4F700302B12D7402121031EEF0A3EF57
:1030B00012B48EECF0A3ED12B48EAA82AB83121E72
:1030C00053E9F50C706AE50A450B60648E828F83C4
:1030D00012C45FEE4F60567A067B001227958A0E67
:1030E0008B0FA80EA90FE8497005750C1380418855
:1030F000828983E412B13AEEF0A3EF12C48AE50AA2
:10310000F0A3E50BF09002E512B1C19002E5700565
:1031100012BF3C801B12BF2A8003EAFCEBFD8C82AD
:103120008D8312B1C170F38C828D8380E3750C02A4
:10313000A90C7404120FFC02C679F0A312C430A3C8
:103140002274F212103D890CE975F017A4FEAFF05D
:103150009002E4E4F09002E212B1C1600A12279BEF
:103160009002E2E4F0A3F0EEFAEFFB1227958A0A50
:103170008B0BEA450B602FEEFCEFFD790012271751
:103180009002E2E50AF0A3E50BF07B00800812B1A3
:10319000ABE4F0A3F00BEBC3950C40F2E50C90020E
:1031A000E4F079008002791302C679EB75F017A478
:1031B000F8A9F09002E2E028FAA3E0398A82F583C8
:1031C0002212BBCEEA4B2274F412103D740C121082
:1031D0003112C454FEE9FF750A00750B00800CE53E
:1031E0000A2401F50AE50B3400F50BC3E50A9CE55A
:1031F0000B9D5032850A0C850B0D7403780C120F51
:10320000D3EA250CF8EB350DF988828983A3A3A3B3
:10321000A3A3A312C011EE650C7003EF650D70BF80
:10322000E8FAE9FB80047A007B00802774F412102E
:103230003D7900EAA2E0501B750A1C750B84780AE0
:103240001212507C047D007A027B0A121F2B74023A
:10325000120FFC7F0402110FC082C0839002E5129E
:10326000B28B601C88828983A3A3E06A7003A3E009
:103270006B8882898370E8A3A3A3A312BBCA8004CE
:103280007A007B00D083D082020C9B12C75FE84992
:103290002274EE12103D74FC120FE6EAFEEBFF857D
:1032A0001A82851B83E4F0A3F0EE240212BF1CEE09
:1032B000240512C437EE2404F510EF12B843E024BD
:1032C000FE603924FC604624FE605224FE605E24C9
:1032D000FE700302B3A424FE700302B40824FE703F
:1032E0000302B41724FE700302B42624FC70030208
:1032F000B43524FE700302B44402B4819002FE741B
:1033000017F0A3E412B496121BD102B481851A827D
:10331000851B83AC82AD83121F4F02B451851A8284
:10332000851B83AC82AD83121F5502B451850E0AF2
:10333000850F0B7402121031AC82AD83850A828531
:103340000B8312BBCA121E778A0E8B0FAC0EAD0F09
:10335000EC4D603BE4F50EF50F780E121250750E31
:10336000FE750F02780E121250750EFF750F02785F
:103370000E121250740812103112126712C8DB12AA
:103380000FFCE9F50E700B12BBC0121BE9800F7524
:103390000E01850A82850B8312B48412BF3C850E10
:1033A0000A02B4547402121031AC82AD83850E82CD
:1033B000850F8312B995603C850E82850F83A3A388
:1033C0001212677512FE75130278121212507512DE
:1033D000FF75130278121212507408121031121273
:1033E0006712C8DB120FFCE9F50B700B12BBC012A1
:1033F0001BEF800F750B01850E82850F8312B4843D
:1034000012BF3C850B0A804C851A82851B83AC82D7
:10341000AD83121F5B803A851A82851B83AC82AD17
:1034200083121F61802B851A82851B83AC82AD833A
:10343000121F67801C851A82851B83AC82AD8312A4
:103440001F6D800D851A82851B83AC82AD83121F90
:1034500073E9F50AE50A60298E828F83A3E064147C
:10346000601F851082851183E09002FE12B48E12D7
:10347000C75B9002FF12BF3CE50AA312B496121B71
:10348000CB02BE2B12C75F851A82851B8322F08573
:103490001A82851B8322F07CFE7D02850C82850DBD
:1034A0008312BBCE2274EE12103D74FC120FE68A1A
:1034B0000C8B0D8C108D11EA2405F50AEB3400F508
:1034C0000B7C157D0079007AFE7B02122717E50A36
:1034D0002402F50EE50B12C43A851A82851B8385FA
:1034E00082128583137812121250850A82850B830B
:1034F000A3A3A3A312B98C121250E50A2405F51256
:10350000E50B3400F5137812121250850E82850FE8
:103510008312BCE1121E717406120FFC8A128B1307
:10352000AE12AF13E50C2402F50CE50D12BF1FEE31
:103530004F700302B6638017740212103112BBCAB7
:1035400088828983EAF0A3EBF09002FEE004F09019
:1035500002FEE0C39405400302B663E4F512F513DE
:1035600078121212507512E7751302781212125067
:103570007512E87513027812121250740612103187
:103580001212677910EEFCEFFD12C8DD120FFCE994
:10359000705E850A82850B83A3A3A3A3A3A3A3E0E4
:1035A000F89002E7E068704812B98C1212507CE87B
:1035B0007D02E50A2408FAE50B3400FB122711749A
:1035C00002120FFCE960298E828F83A3A3A3A312AA
:1035D000BBCA9002FEE0F51274027812120FD37487
:1035E000FF2512F58274023513F583EAF0A3EBF0A0
:1035F00074021210318582128583137812121250D0
:103600007402121031121267850E82850F8312BB6D
:10361000F0120FFC8A128B13AE12AF139002FEE071
:10362000F51275130074027812120FD374FE25126E
:10363000F874023513F988828983A312B1C170032B
:1036400002B52FE82403080808E93400F9EE4F60BA
:103650000302B5388882898374FFF0A3F09002FEDC
:10366000E004F09002FEE0600A12BBC0121BDD799C
:1036700000800B850A82850B8312BF33790A02BE54
:103680002B74EA12103D74FE120FE68C148D15EAAD
:103690002405F50EEB12C8C512C463750A00750B3C
:1036A00000EA2402F512EB3400F513851A82851B1B
:1036B0008385820C85830D780C121250850E8285CD
:1036C0000F83A3A3A3A312B859121250E50E240529
:1036D000F50CE50F12BF1F780C121250850E828573
:1036E0000F8312B85D121E717406120FFC8A0C8BC8
:1036F0000DEA450D700302B7FEEA2404F510EB1243
:10370000B84312C4638A828B83A3A3A3E0F9851212
:103710008285138312BBD4600302B7FEE4F516F56D
:103720001778161212507516E775170278161212CE
:10373000507516E87517027816121250740612109A
:10374000311212677913AC0CAD0D8512828513838B
:1037500012C8E3120FFCE9F50B600302B7FE9002FA
:10376000E7E0F8E50A7009E024029002FFF0801417
:103770009002FFE0FCE82402FAE43400FBEA6C70FB
:1037800001EB707E850A82AA8212B983941412B961
:103790007B506B851082851183E0C0E074002A1293
:1037A000B83AD0E0F0050A851082851183A3E0C005
:1037B000E0850A0C7400250C12B83AD0E0F0050A36
:1037C0009002E712B8591212507CE87D02850A0C6B
:1037D0007400250C12B84D120FFC9002E7E0250A88
:1037E000F50A74FF6E700374FF6F6012EE24010E11
:1037F000EF3400FFE50AC39414500302B6ABE50AA8
:10380000601312BBDE85128285138312BBCA121BA2
:10381000E379008014E50B7003750B0A851482852B
:103820001583EEF0A3EFF0A90B7402120FFC7F0ECC
:1038300002110F850A0E7400250EF5827403340000
:10384000F583223400F511851082F58322FA740382
:103850003400FB1226FF74022212C49922A3A31281
:10386000B8632212BF2AFDEEFAEFFB2274EE1210AB
:103870003D74FE120FE68C108D11EA2405F50EEB57
:1038800012C43A750D009002FEE4F0F50CEA240231
:10389000F50AEB3400F50B80449002FEE0FA90024A
:1038A000E7E0F812B983941712B97B400D9002FE3D
:1038B000E0F87416C3989002E7F012B98C12125017
:1038C0007CE87D0274FF2AFA740212B850120FFCD1
:1038D0009002E7E0F89002FEE028F0050CE50E24E7
:1038E00016F582E50F12B83EE0F8E50CC398507467
:1038F0009002FEE0C39416506BE50CC333F8E4333A
:10390000F9E50E28FEE50F39FF851A82851B83AC89
:1039100082AD838E828F8312B9957008750D011266
:10392000BF2F8050E4F512F5137812121250751261
:10393000E775130278121212507512E875130278A7
:103940001212125074061210311212677916850A7B
:1039500082850B8312C8E3120FFCE9F50D70030298
:10396000B89980BB7CFE7D02850A82850B8312BBE1
:10397000CA121BF5A90D740202BE2DE99400C3659D
:10398000D03322EA28F8E43400F9E822E0F5127591
:10399000130078122212BE228A128B13AC12AD13BE
:1039A000EC4D2274EA12103D74FC120FE68A0E8B65
:1039B0000F8C148D15EA2405F50CEB12BF1F750A48
:1039C00000750B00E50C2402F512E50D3400F5132B
:1039D00074021210318582108583117810121250F2
:1039E000850C82850D83A3A3A3A312C43F1212509A
:1039F000E50C2405F510E50D3400F51178101212D0
:103A00005085128285138312BF2512BBC4121E710A
:103A10007406120FFC8A108B11AE10AF11E50E2444
:103A200002F510E50F3400F511803888828983741F
:103A3000FFF0050A12B83374FFF0050A9002E7E0C0
:103A4000F50E750F00780E1212507CE87D02850A83
:103A50000E7400250E12B84D120FFC9002E7E025FF
:103A60000AF50AEE4F60278E828F83A3A3A3E0F9A5
:103A700085108285118312BBD4EE240412C437E969
:103A80006027850E82850F8312BBB612BF3CE50A04
:103A9000700302BB9C12BBDE85108285118312BBB2
:103AA000CA121BFB790002BBB1E4F516F5177816B4
:103AB0001212507516E77517027816121250751605
:103AC000E87517027816121250740812103112128B
:103AD000677911EEFCEFFD85108285118312C8E332
:103AE000120FFCE9F50B709A850A82AA82EA90020D
:103AF000E77009E024049002FFF08025E0F89002CE
:103B0000FFE0F516E82404FCE43400FDEC651670D3
:103B100001ED708112B983941212B97B400302BA8D
:103B200095850E82850F83E0C0E074002A12B83AB2
:103B3000D0E0F0050A850E82850F83A3E0C0E01275
:103B4000B833D0E012BBF985820E85830F780E1250
:103B50001250740412103112126785128285138379
:103B600012BBF0120FFC8A0E8B0FAE0EAF0F850A40
:103B70000E7400250EF874033400F9EE4F70030242
:103B8000BA2B851A82851B83E08882898312BBF950
:103B9000A3E0C0E012B833D0E002BA39E50B7003FD
:103BA000750B0A850C82850D8312BBB612BF3CA92A
:103BB0000B740402B82B12C75F851482851583220B
:103BC0007CFE7D02850C82850D8312BBCE22E0FA3D
:103BD000A3E0FB2212BBCE121E5FE9F50B2290027E
:103BE000FFE0F5F0E50A849002FEF07CFE7D022203
:103BF00012B863121E7D740422F0050A851A8285AC
:103C00001B832274EC12103D74FE120FE68A0A8B9D
:103C10000B8C108D11EA2405FEEB3400FF12BE0C54
:103C2000EE241812C437EA450D700302BCAF12BD72
:103C3000F5502912BCD48A128B13EA4513606B79B4
:103C400012AC0CAD0D850A82850B8312BBCA85129E
:103C50008285138312103BE9F50C7058E4F50CF5DE
:103C60000D780C1212508E828F83A3A3E0F50C788E
:103C70000C121250EE240312BF1C780C1212508E3C
:103C8000828F8312BCE1121F977406120FFCE9F5B4
:103C90000C7021850E82850F83E0701F850A828556
:103CA0000B8312BBCA121C018011750C0E800975A2
:103CB0000C018004E50C600312BF2F850E82850F76
:103CC00083E0600479008002A90C7402120FFC7F6B
:103CD0000C02110F851A82851B8312BBCE121F8521
:103CE0002212BF2AFD850A82850B8312BBCE227465
:103CF000EE12103D74FE120FE68A0A8B0B8C0E8DAD
:103D00000FEA2405FEEB3400FF75100012BE0CEA2A
:103D1000450D700302BDD312BDF5502C12BCD48AE0
:103D2000108B11EA4511604A7912AC0CAD0D850A71
:103D300082850B8312BBCA85108285118312103BCA
:103D4000E9F510600302BDD6850A82850B8312C097
:103D500011AA0CFB12BDE770147AFF7BFF12BDE7BE
:103D6000606C88828983E50CF0A3E50DF0750C008A
:103D7000800775100E805F050C9002E4E0FAE50CF8
:103D8000C39A504AE50C75F017A4FAABF088828903
:103D900083A3A3E02AFAA3E03BFB8A828B8312BFB2
:103DA00025EC4D70D2750C17750D00780C12125061
:103DB000EEFCEFFD1226FF7402120FFCEEFCEFFD8D
:103DC000850A82850B8312BBCA121C0780147510EA
:103DD00009800375100112C757850E82850F831263
:103DE000BF3CA91002B976121F798A128B13A81250
:103DF000A913E84922E50A2402F50AE50B3400F587
:103E00000B8A828B83A3A3A3E0A2E522851A828575
:103E10001B83AC82AD838E828F8312BE228A0C8B71
:103E20000D22E0FAA3E0FB121E77227404120FFCAD
:103E30007F0A02110F74EC12103D8C128D13EA24CC
:103E400005F50EEB12C43A751100EA2402F50CEBED
:103E500012BF1F850C82F58312BBCA12C969700399
:103E600002BF117510008071850E82850F83E0649A
:103E700001704F8E828F83A3A31212678E828F836D
:103E8000A3A3A3A3E0F5147515007814121250EE45
:103E90002405F514EF3400F515781412125012BBF6
:103EA000C4121F977406120FFCE9F5116014850EF9
:103EB00082850F83E4F012C757851282851383121F
:103EC000BF3C7C177D007900EEFAEFFB1227178EBE
:103ED000828F83E4F0A3F005109002E4E0F8E5108F
:103EE000C398501EE51075F017A4F8A9F0850A8252
:103EF000850B83A3A312C8CF12BF25EC4D6003022C
:103F0000BE68850A82850B8374FFF0A3F0E511700B
:103F10000612BBC4121C0DA91102BCCFF50CEF3464
:103F200000F50D22A312BF2AFD22E0FCA3E0228EA1
:103F3000828F8312C75F851082851183E8F0A3E921
:103F4000F022C082C0839002E0E06A7003A3E06BBD
:103F500070067AE07B0280047A007B0002B28474EF
:103F6000F712103D7F00EF75F003A4F8A9F0EC28DC
:103F7000F8ED39F988828983E06A7003A3E06B70F9
:103F800006E8FAE9FB800B0FEFC3940240D87A00F1
:103F90007B007F0102110F74F612103D12C54870AC
:103FA000067A007B008007A3A3A3A312BBCA02C6A4
:103FB0000974F212103DE9FE740E12103112C01194
:103FC000741012103112C4798C828D83E0640270F7
:103FD0003BA312C75B88828983E0F50EA3E0F9A8B2
:103FE0000E74026870037429697021750E02750FD2
:103FF00000780E121250780A121250780C121250D9
:10400000EEF9121FBB7406120FFC8002790102C682
:1040100079E0F50CA3E0F50D2274E812103D74FB75
:10402000120FE6E9851A82851B83F08A188B198C9A
:10403000108D11741F12103112C4797421121031B5
:1040400012C011742312103112C4637512008C82D5
:104050008D83A3A3A3E0A2E4502A741D1210311291
:10406000BCDA8A828B83E5824583700302C125799D
:104070000AAC10AD11AA18AB1912103BE9F5126089
:104080000302C128851082851183E0640260030267
:10409000C3DEA312C75B850A82850B83A3858214C6
:1040A000858315E5102406F50EE51112C43A8882C1
:1040B0008983E0FAA3E0F9EA2400F516E439F5175C
:1040C00078161212DA010000280128EDC00700025C
:1040D00028C4C1032834C10029EEC2012916C30235
:1040E00029BDC20329EEC204297FC3DEC3EE4F708F
:1040F0003E850E82850F8312C454FAE9FB8A828BB7
:1041000083E0850C82850D8312C4901212508A823E
:104110008B83A312BF2AFDAA0AAB0B1226FF7402DF
:10412000120FFC800375120EA912740502C8BD752A
:10413000120B80F4EE4F70F7850C82850D837401AD
:10414000F012C469850A82850B83F07C007D0085AE
:104150001082851183A3A3A3A3E02401FAA3E03472
:1041600000FB121E77EA4B60418A828B83E02402B7
:10417000F8850C82850D83E028F0EA2404F8EB34FE
:1041800000F988828983E085148285158312C4A290
:1041900012C4901212508A828B8312BF24E50A2423
:1041A00003FAE50B3400FB02C11B850C82850D83ED
:1041B000E02404F07C047D007900AA14AB151227DA
:1041C0001702C128EE4F600302C12F12C469FEA37B
:1041D000E0FF850C82850D837404F0EE850A8285EC
:1041E0000B83F0EF851482851583F0740312103170
:1041F000AC82AD83EEFAEFFB12C536700302C29AB1
:104200008A828B83A3A312C45F740112103185824A
:104210001085831178101212507405121031121289
:10422000677CFF7DFF121E7D7404120FFC8B11EA68
:1042300045117033850E82850F8312C43F121250D0
:10424000850E82850F83A31212677C027D007AE6B9
:104250007B84121CA97404120FFCE9700A74011209
:10426000103174FFF0A3F08E828F83E0640270340B
:10427000750E02750F00780E1212508E828F831207
:10428000BF24E50A2404FAE50B12B850120FFC858E
:104290000C82850D83E0240280097401121031EE36
:1042A000F0A3EFF0740112103112C450F074011237
:1042B0001031A312C448A3A3A3F002C128EE4F609B
:1042C0000302C12F850E82850F8312BF25AA18AB6A
:1042D00019121FAF850C82850D837402F0EA850ADE
:1042E00082850B83F0851482851583EB80CBEE4F9E
:1042F000600302C12F12C469F8A3E0F9850C82851E
:104300000D837402F0E8850A82850B83F0E9851439
:104310008285158380A3850E82850F8312BBCA1206
:1043200026F9EAFC8C82A882C39EE49F404BE86E8B
:104330007001EF70047C00801F851A82851B83E06A
:10434000FAEE2AFAEF3400FBC3EA98EB940050032C
:10435000E08004EECCC39CFCEC850C82850D83F0E0
:104360008C0C750D00780C121250850E82850F830F
:10437000E02EFCA3E03F02C11675120702C128EE31
:104380004F600302C12F850E82850F8312C75B85A4
:104390000C82850D837407F08882898312C44812C9
:1043A000C430E0851482851583F0E82402FAE934EC
:1043B00000FB8A828B8312C44812C48112C450A3AA
:1043C00012C48A12C459F0E82405F8E93400F988C7
:1043D00082898312C459A312C4A2A302C2B6741D57
:1043E00012103112C541700302C12512C75B880E3D
:1043F000890FE8450F700302C1258E128F137812C2
:10440000121250780C121250780A121250740612BE
:104410001031E0F9AC10AD11AA18AB19850E8285E8
:104420000F8312103B7406120FFCE9F51202C1282B
:10443000F088828983A322F50EEF3400F50F22E085
:10444000F510751100781022E0850A82850B832211
:1044500012C4A92212C75FE82212C4A9A3A322A3EF
:10446000A3A3A3E0FEA3E0FF22850E82850F83E0D5
:10447000F8A3E0F5838882E022E0F50AA3E0F50BDB
:1044800022A3A3F08A828B83A32212B13CA3A3228E
:10449000F08A828B8312C49922E0F50C750D0078A6
:1044A0000C2212C43012C4A922E0850A82850B8333
:1044B000A3A32274EE12103D74FE120FE68A0C8B39
:1044C0000DECFAEDFB7414121031E0F512A3E0F5D7
:1044D000137416121031E0FE7418121031E0F5104A
:1044E000A3E0F511851A82851B83AC82AD8312C5CA
:1044F00036603E851A82851B8312C541602FA3A3B7
:1045000012C479E50A450B60247810121250781213
:10451000121250EEF9AC0EAD0FAA0CAB0D850A824B
:10452000850B8312103B7404120FFC8006790E80F9
:1045300002790102B976121E778A0E8B0FEA450FB7
:104540002212BBCE12C54822121F438A828B83E5FA
:104550008245832274F612103D74FE120FE6740C2D
:1045600012103112C454851A82851B83F074011213
:104570001031E9F0E4F50AF50B780A121250750AC9
:1045800002780A121250740412103185820A85834F
:104590000B780A121250121F977406120FFC740245
:1045A000120FFC806474F712103DEAFEEBFF890ADB
:1045B0007C177D03121FAFEA5402600BA90AEEFAC2
:1045C000EFFB121E6B8002790102BF9274F612108B
:1045D0003D74FF6A700374FF6B701C7B00EB75F019
:1045E00003A4F8A9F0EC28F8ED39F912C60E0BEB8C
:1045F000C39402501480E6121F7F8A0A8B0BA80A0C
:10460000A90BE849600312C60E7F0202110F8882CF
:10461000898374FF12B13AE4F02274F612103D124D
:104620001F7F8A828B83E58245836006A3A3E0FA1D
:1046300080027A007B0080D174F212103D8A0A8BCE
:104640000BECFEEDFF740E121031E0F50C12C67E7D
:10465000701CEEFCEFFD7AFF7BFF12C67E700479C2
:1046600011801688828983E50AF0A3E50BF0888221
:104670008983A3A3E50CF079007F0602110F121FB6
:104680007F8A0E8B0FA80EA90FE8492274EE121034
:104690003DEAFEEBFF8C0A8D0B890E74121210316D
:1046A00012C75B741412103112BF25741612103128
:1046B00012BBCA750F00EC4D600302C74F74026550
:1046C0000E600302C74A8882898312BF2AF9EC244C
:1046D00000F510E439F511EAF4F8EBF4F9EC58F8C8
:1046E000E51159F9E849705DE50A2406F8E50B344F
:1046F00000F9880C890D8882F58312B85F121FAF0C
:104700008A128B13E51065127004E511651360427F
:104710007810121250850C82850D8312B85F121F1B
:10472000B57402120FFCE9F50F70277810121250C1
:10473000850A82850B83A3A312B85D121FCD740274
:10474000120FFC800D750F808008750F0D800375AA
:104750000F0BA90F02BE308E828F8312C75F22E03B
:10476000F8A3E0F92274E812103D74E7120FE68511
:104770001A82851B83EAF0A3EBF08C188D1989103F
:104780007431121031E0F514A3E0F51574331210F2
:1047900031E0F516A3E0F5177435121031E0F5118C
:1047A000750A00750B00E50B75F003A4F8A9F085F8
:1047B0001A82851B8312C8CFE0F47003A3E0F47063
:1047C0000302C8ADEE2402F50EEF12C8C5E0700377
:1047D00002C8AD85180C85190D780C121250AC1654
:1047E000AD17AA14AB15121F377402120FFC8A0CF6
:1047F0008B0DEA450D700302C8ADE4F512F5137890
:1048000012121250740612103185821285831378A9
:104810001212125074091210318582128583137896
:1048200012121250851482851583A3A3A3A312121A
:10483000677914AC0CAD0D8E828F8312C8E3120F12
:10484000FCE97069850C82850D83A3A3A3A312C71D
:104850005B740212103112BF3C850E82850F83E01B
:10486000A2E05018A9107402121031AC82AD838EF0
:10487000828F8312BBCA121E8FE9420A850E82857F
:104880000F83E0A2E15026E511F50C780C121254CA
:10489000A9107403121031AC82AD838E828F831203
:1048A000BBCA121E897401120FFCE9420A050BE50E
:1048B0000BC39402500302C7A6A90A7419120FFC75
:1048C0007F1002110F3400F50F850E82F58322E070
:1048D00028FEA3E039FF8E828F83227916850C8211
:1048E000850D8312BBCE121F9174082274F2121030
:1048F0003DEAFEEBFF890D7401650D600E740265E3
:104900000D706379011221A7E9705BEEFAEFFB12DB
:10491000C9696047750C00800B7C177D0079001217
:104920002717050C9002E4E0F8E50CC3985021E548
:104930000C75F017A4F8A9F0850A82850B83A3A350
:10494000E028FAA3E039FB8A828B8312B28B70C90C
:10495000850A82850B8374FFF0A3F07C177D03EE3C
:10496000FAEFFB121FA902C679121F798A0A8B0B74
:10497000EA450B2274F212103D8A0A8B0BECFEED15
:10498000FF740E12103112C011900A00E0F4603D65
:104990007A097B00122729EA4B60328A828B837462
:1049A000B1F0A3E412C483A312C481A3E50AF0A367
:1049B000E50B12C9D0EEF0A3EF12C9D0A3A3E50C0A
:1049C000F0A3E50DF0900A00E0F912273502C67950
:1049D000F08A828B83A3A3A3A3A322C082C0839067
:1049E00061907404F0A37448F0A37402F0906180A5
:1049F0007440F09061BC7403F09061877419F0907A
:104A00006265741BF090619C740DF090619A743330
:104A1000F0A37455F09061A0743AF090055BE064E7
:104A2000017009C2919003C5746780059003C57435
:104A300061F0902AE2E493906186F0902AE4E49396
:104A4000F46027E493540FF8906185E0686012E504
:104A5000C654804449F5C6E59E547F644970F8E821
:104A6000F053C680E59E547F70FA79051224E30264
:104A7000CBF0C082C083E5A8F853A87E906181E4A2
:104A8000F0A3F0A3F0C2BA539AFEC289759B00C28C
:104A9000C275E90075910075BF0075A91175B9055A
:104AA000906181F0A374C0F0A3E4F0D2BA439A01FC
:104AB00074805842A802CBF0C082C08374F8120FF1
:104AC000E69003C3E0F8A3E0F9E849700302CBE6FF
:104AD0009003C3E0544060237908851A82851B83C4
:104AE000AA82AB8312235D851A82851B83AA82ABBF
:104AF000831220399003C3E054BFF0E0548060106B
:104B0000790C7A7F7B0512235D9003C3E0547FF01C
:104B1000E0A2E0503190619A7433F0A37455F090A4
:104B200061A0743AF090055BE064017009C2919055
:104B300003C5746780059003C57461F012203F902F
:104B400003C3E054FEF0E05402603190619A743F78
:104B5000F0A3745AF09061A0747FF090055BE0645C
:104B6000017009D2919003C5747180059003C574DA
:104B70006AF012203F9003C3E054FDF0E05404605B
:104B800013902AE0E493906186F01220459003C3CD
:104B9000E054FBF0E054086013902AE1E493906144
:104BA00086F01220459003C3E054F7F0E054106003
:104BB00013902AE2E493906186F01220459003C39B
:104BC000E054EFF0E05420600A1220459003C3E067
:104BD00054DFF0A3E05401600D12228512204B90A7
:104BE00003C4E054FEF07408120FFC8003F0A3F03D
:104BF000D083D082020C9B74EC12103D74F4120F1F
:104C0000E6851A82851B83AC82AD837583847582A9
:104C1000557404120EF9902AE093F4600302CD84D7
:104C2000907808E0C39402500302CD64740412101B
:104C300031AC82AD8375838475820E7408120EF9CF
:104C4000851A82851B83858214858315740412104E
:104C500031AC82AD837510FF7511FF7FFF7E00754B
:104C60000E48750F78801574086E700302CCF774C7
:104C7000096E700302CCF7740A6E607B850E828524
:104C80000F83780A120EB68C828D83A90BE50CC9AE
:104C9000F888127418780A120DF7E512450AF8C35D
:104CA000E098A3E099850E82850F83780A120EB6EC
:104CB00040188C828D837418780A120DF7E512451E
:104CC0000AF8E0C398F8A3E0801C7418780A120D63
:104CD000F7E512450AFAE9FB8C828D83E0F8A3E040
:104CE000F9EAC398F8EB99F9C3E89510E9951150E2
:104CF0000688108911EEFF0EE50E2404F50EE50F6F
:104D00003400F50FEEC39413500302CC6774FF65B3
:104D100010700474FF651160238F0A7402780A1200
:104D20000FD37448250AF5827478350BF583780A19
:104D3000120EB6851482851583E50AF0EC24020C68
:104D40000CED3400FD851482851583A385821485BE
:104D50008315740C121031E5826C7003E5836D606D
:104D60000302CC55750A01750B00780A12125074B3
:104D700002121031AC82AD837AB87B0A12290F740B
:104D800002120FFC740C120FFC7F0C02110FC08278
:104D9000C0839061AE7468F0A3746AF09062457449
:104DA000FBF0A304F053F4FD43FE0290055B740195
:104DB000F09061A0E0643A90619A70237433F0A39C
:104DC0007455F09061A0743AF0740164017009C2E6
:104DD000919003C5746780289003C5746180217425
:104DE0003FF0A3745AF09061A0747FF074016401E5
:104DF0007009D2919003C5747180059003C5746ADF
:104E000002CBEF7F0402110FC082C08390050DE03A
:104E10006401700A900512E06004790C8002790048
:104E200002CBF0C082C08375E1F1900510E06055BF
:104E3000146008146059146051805912229790052B
:104E400006E0F97A077B05122465908459120ED486
:104E500012249B908495120ED4122471900511E0B7
:104E6000F912247D79011224D7900504E02416F864
:104E7000A3E03400F98882898374AFF0A37422F030
:104E8000790002CBF012229D80B41222A380AF12CF
:104E900022A980AA791280EA74F412103D75D90D06
:104EA0009004F5E0A2E0E4331313F8900506E0C4A3
:104EB000333354C0484401F5D97804790588828990
:104EC00083A3A3A3E0F5D988828983A3A882A983B9
:104ED000E8640A7003E9640570E378F57904888270
:104EE0008983A3E0F5D988828983A3A882A983E86E
:104EF00064FB7003E9640470E575E1959004F5E0E6
:104F0000F97AF67B0412246B900A227449F0A37498
:104F100022F0A374A5F0A37423F0A374A5F0A374E6
:104F200023F0A374A5F0A37423F0A3744FF0A3742B
:104F300022F0A374A5F0A37423F0A37467F0A37404
:104F400022F0900A3074A5F0A37423F0A374A5F0A6
:104F5000A37423F0A374A5F0A37423F0A374A5F0A5
:104F6000A37423F0A374A5F0A37423F0A374A5F095
:104F7000A37423F0900504E0F8A3E0F5838882A3EE
:104F8000A3780A120EB6908461780A120E429084B9
:104F90008D780A120E90900504E0240EF8A3E034F8
:104FA00000F988828983780A120EC5900504E024EE
:104FB00014F8A3E03400F9888289837413F0900315
:104FC000C17402F002CE03C082C083900516E024B3
:104FD00007F5D9900506E0C4333354C0F5D97804F9
:104FE000790588828983A3A3A3E0F5D98882898380
:104FF000A3A882A983E8640A7003E9640570E390BA
:105000000516E0601F78047905FAE82413F582E9B3
:105010003400F583E0F5D988828983A3A882A98327
:105020001AEA70E6900536E02407F5D9900506E007
:10503000C4333354C04404F5D9780479058882898F
:1050400083A3A3A3E0F5D988828983A3A882A98337
:10505000E8640A7003E9640570E3900536E0601FB8
:1050600078047905FAE82433F582E93400F583E021
:10507000F5D988828983A3A882A9831AEA70E67584
:10508000E195900A227455F0A37422F0A374A5F060
:10509000A37423F0A374A5F0A37423F0A374A5F064
:1050A000A37423F0A3744FF0A37422F0A374A5F0AB
:1050B000A37423F0A37467F0A37422F0900A3074F1
:1050C000A5F0A37423F0A374A5F0A37423F0A37434
:1050D000A5F0A37423F0A374A5F0A37423F0A37424
:1050E000A5F0A37423F0A374A5F0A37423F0908417
:1050F00079120ED4900504E0240EF8A3E03400F9F0
:1051000088828983120EE0900504E02414F8A3E05D
:105110003400F9888289837412F09003C17401020B
:10512000CBEFC082C083900516E02407F5D9900527
:1051300006E0C4333354C04402F5D97804790588B5
:10514000828983A3A3A3E0F5D988828983A3A88257
:10515000A983E8640A7003E9640570E3900516E02A
:10516000601F78047905FAE82413F582E93400F524
:1051700083E0F5D988828983A3A882A9831AEA707B
:10518000E675E195900A227461F0A37422F0A3748D
:1051900061F0A37422F0A37461F0A37422F0A374ED
:1051A00061F0A37422F0A37461F0A37422F0A374DD
:1051B00061F0A37422F0A37467F0A37422F0900A44
:1051C0003074A5F0A37423F0A374A5F0A37423F0A6
:1051D000A374A5F0A37423F0A374A5F0A37423F023
:1051E000A374A5F0A37423F0A374A5F0A37423F013
:1051F000908479120ED4900504E0240EF8A3E034D4
:1052000000F988828983120EE0900504E02414F8E6
:10521000A3E03400F9888289837414F09003C17488
:105220000402CBEFC082C083900516E02407F5D9B5
:10523000900506E0C4333354C04406F5D9780479A8
:105240000588828983A3A3A3E0F5D988828983A3F3
:10525000A882A983E8640A7003E9640570E39005F5
:1052600016E0601F78047905FAE82413F582E93422
:1052700000F583E0F5D988828983A3A882A9831ADF
:10528000EA70E6900536E02407F5D9900506E0C4FB
:10529000333354C04404F5D978047905888289836E
:1052A000A3A3A3E0F5D988828983A3A882A983E870
:1052B000640A7003E9640570E3900536E0601F78C6
:1052C000047905FAE82433F582E93400F583E0F542
